:020000040800F2
:10000000C8A30020C101000811510008DD4200080A
:10001000294C0008C103000891640008000000009A
:10002000000000000000000000000000C15A0008AD
:10003000F50800080000000071530008E55A0008A8
:10004000DB010008DB010008DB010008DB01000820
:10005000DB010008DB010008DB010008DB01000810
:10006000DB010008DB010008DB010008DB01000800
:1000700095080008DB010008A1080008DB01000862
:10008000AD080008B9080008DB010008DB01000822
:10009000C5030008DB010008DB010008DB010008E4
:1000A000DB010008DB010008DB010008DB010008C0
:1000B000DB010008DB010008DB010008DB010008B0
:1000C000DB010008DB010008DB010008DB010008A0
:1000D000DB010008216200083D6200084962000857
:1000E000DB010008DB010008DB010008DB01000880
:1000F000DB010008DB010008DB010008DB01000870
:10010000DB010008DB010008DB010008DB0100085F
:100110002D5D0008DB010008E55B0008DB0100083D
:10012000DB010008C5080008D1080008DB01000851
:10013000DB010008DB010008DB010008DB0100082F
:10014000D1030008DB010008DB010008DB01000827
:10015000DB010008DD080008E90800086962000802
:10016000DB010008DB010008DB010008DB010008FF
:10017000DB010008DB010008DB01000800000000D3
:10018000DB010008DB010008DB010008DB010008DF
:10019000DB010008DB010008DB010008DB010008CF
:1001A000DB010008DB010008DB010008DFF80CD0F0
:1001B00000F0B6F800480047416E0008C8A30020D0
:1001C0000648804706480047FEE7FEE7FEE7FEE7F1
:1001D000FEE7FEE7FEE7FEE7FEE7FEE7D15B00088D
:1001E000AD0100082DE9F05F0546002092469B46D0
:1001F00088460646814640241BE02846414647463D
:10020000224600F053F853465A46C01A914110D383
:1002100011461846224600F03AF82D1A67EB0108FD
:100220004F4622460120002100F031F817EB00096B
:100230004E41201EA4F10104DFDC484631462A4627
:100240004346BDE8F09F40EA01039B0703D009E065
:1002500008C9121F08C0042AFAD203E011F8013BB2
:1002600000F8013B521EF9D27047D2B201E000F80B
:10027000012B491EFBD270470022F6E710B513464A
:100280000A4604461946FFF7F0FF204610BD202A13
:1002900004DB203A00FA02F1002070479140C2F1DD
:1002A000200320FA03F3194390407047202A04DB0F
:1002B000203A21FA02F00021704721FA02F3D040DF
:1002C000C2F120029140084319467047F0B400F093
:1002D000004221F0004120F00040CE0DC30DC1F3DB
:1002E000160141F40001C0F316004C42154640F4DB
:1002F0000000761E09E010EB440002D582F00042B7
:1003000040428842F7D840005B1EB342F9DA18B188
:10031000F0BC002100F025B82846F0BC7047000072
:100320001CB509480090094801900546009C06E06C
:10033000E06840F0010394E8070098471034AC42AD
:10034000F6D3FFF737FF000038A2000858A20008D4
:100350000029A8BF7047401C490008BF20F00100D9
:10036000704710B4B0FA80FC00FA0CF050EA0104B7
:1003700004BF10BC704749B1CCF1200421FA04F449
:1003800011FA0CF118BF012121430843A3EB0C0122
:10039000CB1D4FEA00614FEA102042BF002010BC85
:1003A000704700EBC35010440029A4BF10BC704735
:1003B000401C490008BF20F0010010BC704700003D
:1003C000FEE7000040F61060C2F2000000F05ABEE6
:1003D00040F63860C2F2000000F054BEB0B582B002
:1003E00040F24C1CC2F2000C4FEA102E0CF820EF29
:1003F0008CF80100080A8CF80200100A4FF400740F
:10040000E6468CF80400180A4EF8384F8CF80600BF
:1004100040F63860002408258CF803108CF805207D
:100420008CF80730C2F2000001AB71466246CCE99D
:100430001044CCF848508CF84C4000F09BFC02B0C3
:10044000B0BD0000B0B582B040F24C1CC2F2000C4E
:100450004FEA102E0CF810EF8CF80100080A8CF807
:100460000200100A4FF40074E6468CF80400180AE3
:100470004EF8184F8CF8060040F61060002408254E
:100480008CF803108CF805208CF80730C2F20000BD
:1004900001AB71466246CCE90844CCF828508CF890
:1004A0002C4000F067FC02B0B0BD000010B582B077
:1004B00040F24C13C2F200030C0A9C761C880822FE
:1004C0001A651A465876D976210A000A40F2FF1CAE
:1004D0004FF0000E1977194602F8180F40F6106019
:1004E000C3E912EE83F854E05C77A3F81EE041F80C
:1004F00040CFC2F2000001AB00F03CFC02B010BDE6
:100500002DE9F04F81B02DED0E8B84B049F67804C3
:10051000C2F200040020C4F268104CF6CD41A0469F
:100520002546C3F6CC514FF07A5284E8070048F8CC
:100530000C0F45F8180F0020C4F260102746002366
:10054000A34647F8240FC4F26413A2464BF83C0FAD
:100550000020C4E90412C4E90712C4E90A124AF8E7
:10056000303FC4E90D12C4E91012C4F2A0002146C4
:10057000234641F8480F43F8540F9FED819A9FEDB1
:1005800081AA9FED81CA9FED81DA9FED818A019159
:1005900000224FF07C510293234604F16C09B3EE24
:1005A0000EBAC4E91321C4E9162143F8600FC4E967
:1005B0001921484600212246B0EE490AF0EE4A0AC7
:1005C000B0EE4B1AF0EE4C1AB0EE4D2AF0EE482A7F
:1005D000039304F0AFFE484604F0A2FE04F1C40603
:1005E000304600214246B0EE490AF0EE4A0AB0EE2B
:1005F0004B1AF0EE4C1AB0EE4D2AF0EE482A04F0F9
:1006000099FE304604F08CFE04F58E7630460021CB
:100610002A46B0EE490AF0EE4A0AB0EE4B1AF0EE66
:100620004C1AB0EE4D2AF0EE482A04F083FE304614
:1006300004F076FE04F5BA75284600213A46B0EE7D
:10064000490AF0EE4A0AB0EE4B1AF0EE4C1AB0EE40
:100650004D2AF0EE482A04F06DFE284604F060FEB4
:100660009FED4CEA04F5E675284600215246B0EEAF
:10067000490AF0EE4A0AB0EE4B1AF0EE4C1AB0EE10
:100680004D2AF0EE4E2A04F055FE284604F048FEAE
:1006900004F50975284600215A46B0EE490AF0EEE5
:1006A0004A0AB0EE4B1AF0EE4C1AB0EE4D2AF0EEBC
:1006B0004E2A04F03FFE284604F032FE9FED369AA3
:1006C0009FED36AA9FED36BA9FED36DA04F51F7519
:1006D000B7EE00CA019A28460021B0EE490AF0EEB2
:1006E0004A0AB0EE4B1AF0EE4C1AB0EE4D2AF0EE7C
:1006F000482A04F01FFE04F53576029A30460021A0
:10070000B0EE490AF0EE4A0AB0EE4B1AF0EE4C1A7F
:10071000B0EE4D2AF0EE482A04F00CFE04F54B74BE
:10072000039A20460021B0EE490AF0EE4A0AB0EEE4
:100730004B1AF0EE4C1AB0EE4D2AF0EE482A04F0B7
:10074000F9FD284604F0ECFD304604F0E9FD2046B2
:1007500004F0E6FD40F2BC10C2F20000002141802E
:10076000002000220023FFF76DFE0020002104B0CE
:10077000BDEC0E8B01B0BDE8F04FFFF797BE00BF98
:10078000000080460000FA4500004844CDCCCC3E35
:1007900000000000CDCCCC3D9A99993ECDCC4C3E8A
:1007A000CDCC4C3D6666E63E10B540F23C00C2F250
:1007B0000000027840F20044012AC4F2020403D887
:1007C0002046082101F0DEFC40F22D30C2F200008C
:1007D0000278012A03D82046022101F0D3FC2046EA
:1007E000202101F0C9FC40F69821C2F200010870F6
:1007F00010BD000040F23D00C2F20000007800226F
:100800000138032840F20040C4F202004FF02001FA
:1008100038BF012201F0B6BC40F2313040F22F3136
:10082000C2F20000C2F20001007809780338C9B2B0
:1008300018BF0120023918BF012100EA010240F26D
:100840000040C4F20200202101F09CBC10B540F22F
:100850000044C4F2020420460821002201F092FC68
:1008600020461021002201F08DFCA4F580604FF499
:10087000006101F081FC40F6982C0346C2F2000CA6
:100880002046202100228CF80030BDE8104001F005
:1008900079BC000040F6E870C2F2000001F0B6B981
:1008A00041F24800C2F2000001F0B0B940F62870F1
:1008B000C2F2000001F0AAB940F68870C2F200004E
:1008C00001F0A4B941F2A800C2F2000001F09EB903
:1008D00040F66860C2F2000001F098B941F20810D9
:1008E000C2F2000001F092B940F6C860C2F2000006
:1008F00001F08CB970470000002871D080ED070A24
:1009000030EEC00A90ED125AB0EEC04AB4EE454A3D
:1009100090ED0F1A90ED103AC0ED060A9FED7A2A7D
:10092000F1EE10FAB8BFB0EE420A017880ED0F0A7E
:10093000002980ED101A80ED113A55D0012975D1AA
:1009400090ED015AD0ED020A90ED147A30EE414A52
:1009500031EE011A90ED0C6A24EE054A20EE205A81
:10096000416B30EE410AB5EE407AF1EE10FA33EE0B
:10097000000A80ED094A80ED0A5A816380ED0D6A14
:1009800008DBB7EE002AB4EE427AF1EE10FAD8BFD7
:10099000B0EE472AB7EE001A31EE421A20EE020AF4
:1009A00021EE061A90ED032A31EE000A90ED083A86
:1009B00022EE002A80ED0C0A34EE050A90ED041AAE
:1009C00030EE020A33EE000A80ED0B2AB4EE410A43
:1009D000F1EE10FA80ED080A40F389808FE000BF45
:1009E0009FED490A704700BF90ED136A90ED012A10
:1009F000B4EE454A9FED443AF1EE10FAB5EE406A86
:100A000020EE022AB8BFB0EE434AF1EE10FA80EDB4
:100A1000092A0FD0B4EE464AF1EE10FA0ADB90ED47
:100A20000A4A9FED3A5A24EE054A11E090ED080A71
:100A3000704700BF90ED025A31EE004A90ED0A6A0D
:100A400024EE054AB6EE005A24EE054A34EE064A74
:100A500090ED145AD0E90C21B5EE405AF1EE10FA9F
:100A600080ED0A4AC0E90D210ADBB7EE006AB4EE58
:100A7000465AB0EE453AF1EE10FAC8BFB0EE463A2B
:100A800090ED035A30EE410A80ED0C0A90ED051A04
:100A900090ED156A20EE050AB7EE005A35EE435A7E
:100AA00025EE065A23EE000AB4EE414A30EE050A5E
:100AB000F1EE10FA80ED0B0A80ED150A06DCB1EEBE
:100AC000411AB4EE414AF1EE10FA03DAB0EE414AAF
:100AD00080ED0A1A32EE042A90ED041A30EE020A72
:100AE000B4EE410AF1EE10FA80ED080A07DCB1EE2F
:100AF000411AB4EE410AF1EE10FAA8BF7047B0EE09
:100B0000410A80ED081A70470000000048E17A3F72
:100B1000002818BF002A01D1704700BF80B51368B4
:100B200001704360536800F148018360926880ED72
:100B3000040AC260C0ED050A81EC041A20302821A5
:100B4000FFF79AFB80BD000072B600BFFEE7000011
:100B50000021C0F80014A0F8041470472DE9F041FA
:100B6000B0F804E496456DD352B1B0F80064042A9D
:100B700002F0030C06D20023BCF1000F39D15CE077
:100B800071465CE022F00303C3F100084D1C6FF0D6
:100B9000030400BFB6B2865D2F19FE70B0F8006482
:100BA000043401366FF39F26835DA0F800643B7127
:100BB000B0F8003401336FF39F23C65CA0F8003413
:100BC0007E71B0F8003401336FF39F23C65CA0F848
:100BD0000034BE71B0F800345E1C08EB04036FF300
:100BE0009F260433A0F80064D4D1231DBCF1000F6C
:100BF00023D0845DBCF1010FCC54B0F8004404F163
:100C000001046FF39F24A0F8004416D0045D19443A
:100C10004C70B0F80034BCF1020F03F101036FF324
:100C20009F23A0F8003408D0C35C8B70B0F8001488
:100C300001316FF39F21A0F80014B0F80414891A51
:100C4000A0F804140020964528BF0120BDE8F081DB
:100C50002DE9F043B0F8043403EB020EBEF5806FCB
:100C600068D8002A63D0B0F80234042A02F0030CDA
:100C700004D20024BCF1000F34D156E040F2FC74E1
:100C80001440C4F1000801F101096FF0030500BF31
:100C900009EB0507FC789BB2C454B0F80234043564
:100CA0005C1C6FF39F24A0F802443E7906559C1CFF
:100CB0006FF39F24A0F802447E790655DC1C6FF385
:100CC0009F24A0F80244BE790433065508EB0504BE
:100CD0006FF39F230434A0F80234D9D12C1DBCF14A
:100CE000000F22D00D5DBCF1010FC554B0F80234E5
:100CF00003F101036FF39F23A0F8023415D02144C0
:100D00004C78B0F80254C4546B1C6FF39F23BCF1B1
:100D1000020FA0F8023408D08978B0F80264C154F8
:100D2000711C6FF39F21A0F80214B0F804349918D5
:100D3000A0F804140020BEF5806F98BF0120BDE824
:100D4000F083000090F82020013A012A08D80068BA
:100D500000F114020020136819431160704700BFAE
:100D600000F1240201204FF480211368194311601F
:100D70007047000010B590F820E0D0F800C0AEF148
:100D8000010EBEF1010FDCF808E011D81EF0E05FA3
:100D900018D0CEF301640120A04018608B68DBB14D
:100DA000D1F804E0C86840EACE0040EA030E17E03C
:100DB00000F1240301204FF480211A6811431960C7
:100DC00010BD00BF00F1240301204FF400111A6888
:100DD0001143196010BD00BF0868CB6843EA405E4C
:100DE0000CF5C07000EB0413240140F804E00C691A
:100DF000184640F8044F097D012903D1016841F4E8
:100E00008071016050680121D860106898600020EE
:100E10001A681143196010BD90F82020013A012A88
:100E200030D8B0B546F20060C4F20000026842F06B
:100E300001020260026822F47C520260D1F814E0E0
:100E4000CC694A6A0368012C43EA022202600EF070
:100E50001F024FF0010303FA02F2C3696FEA020CAA
:100E600023EA0203C36113D02CBBC36803EA0C035B
:100E7000C360CB688C8844EA034300EBCE04236450
:100E80000B4611E0416A41F4802141620120704724
:100E9000C3681343C3600B688C8844EA034300EBC8
:100EA000CE04236401F10C038C681B8843EA0443DD
:100EB00000EBCE04636443688D6943EA0204D1F811
:100EC00010E0096A002D08BF03EA0C04446043697E
:100ED000BEF1000F43EA020408BF03EA0C04012933
:100EE000446102D1C1691143C161016821F001016E
:100EF00001600020B0BD000010B5044600F018F8F5
:100F000040F61061C2F200018C4240F24C11C2F274
:100F1000000109D040F63862C2F20002944218BFC4
:100F200010BD0C31086010BD0831086010BD000014
:100F3000406A704790F82020013A012A84BF0020BF
:100F4000704700681022002908BF0C22805800F06A
:100F500003007047B0B590F82040013C012C7DD8CB
:100F6000D0F800C000290CBFDCF80C40DCF81040C1
:100F7000A4077DD00CF5D8754FEA011C55F80C403C
:100F800014F00404946055F80CE005EB011C19BF43
:100F90004FEADE0555604FEA5E551560DCF80050FB
:100FA000E64605F00205D5605EF8044F24075ABFF7
:100FB000DEF8004004F00F0408241461DEF800405D
:100FC0000029C4F307249461DEF800504FEA154568
:100FD0005561DCF808201A70026802EB0112D2F8A1
:100FE000B8214FEA12225A70026802EB0112D2F8BD
:100FF000B8214FEA12429A70026802EB0112D2F84D
:10100000B8214FEA1262DA70026802EB0112D2F8DC
:10101000BC211A71026802EB0112D2F8BC214FEA1E
:1010200012225A71026802EB0112D2F8BC214FEA77
:1010300012429A71026802EB0112D2F8BC214FEA07
:101040001262DA7100680CBF00F10C0100F11001AE
:10105000002020220B681A430A60B0BD00F1240171
:1010600001204FF480220B681A430A60B0BD00BF14
:1010700000F1240101204FF400120B681A430A60AA
:10108000B0BD00002DE9F04F81B00446006846690C
:10109000D0F804908768D0F80CB0D0F810A0D0F841
:1010A0001880F10704D1002530071DD424E000BFCB
:1010B000F90710D00121BA07816009D4780700F13F
:1010C000AF80380700F1B680204600F005FD02E051
:1010D000204600F003FD0025F80500F18780F803A5
:1010E00000F1B180300707D51BF0100004D0206854
:1010F00045F400751021C160700708D51BF0080089
:1011000005D020680821C160204600F0EFF9B00743
:1011100006D52068C068800702D0204600F0E8F9B4
:10112000700607D51AF0100004D0206845F48065D9
:1011300010210161B00608D51AF0080005D020681A
:1011400008210161204600F093FCF00606D52068D6
:101150000069800702D0204600F08CFCB00308D55F
:1011600019F0100005D0206810214160204600F0E1
:1011700083FCF00308D519F0080005D02068082189
:101180004160204600F0B4FC300440F19B805FEAEF
:10119000497040F1948006F4807008EA10202843DA
:1011A0005FEA8871014648BF41F00201B20558BFAD
:1011B00001465FEA48700D4648BF45F004057005DA
:1011C00058BF0D46300540F17A8018F0700000F0ED
:1011D00076801038000905286CD8DFE800F0036538
:1011E0005D61596945F0080564E000BF20684FF46F
:1011F0008071BA0581600BD4780515D438051DD4EB
:10120000204600F06DFCF8037FF56CAF1BE000BFDB
:10121000204600F067FCF8037FF564AF13E000BFE1
:101220004FF4006558E700BF05F50055F8037FF55A
:1012300059AF08E04FF480554EE700BF05F58045F3
:10124000F8037FF54FAF20684FF48031BA03816017
:101250000AD4780310D4380314D4204600F044FC98
:1012600030073FF541AF47E7204600F03FFC30072D
:101270003FF53AAF40E700BF05F5004530073FF5C1
:1012800033AF39E705F5803530073FF52DAF33E74C
:1012900045F080050EE000BF45F020050AE000BFE4
:1012A00045F0400506E000BF45F0100502E000BF34
:1012B00045F480752068816921F0700181612068A2
:1012C0000421416055B1606A40EA0501204661622F
:1012D00001B0BDE8F04FFFF70FBE00BF01B0BDE8A1
:1012E000F08F0000002804BF01207047B0B504460D
:1012F00090F8200010B9204600F06EF820680168D0
:1013000041F00101016000F043FF0546206841689B
:10131000C90705D100F03CFF401B0B28F6D310E0B5
:10132000016821F00201016000F032FF054600BFB4
:101330002068416889070DD500F02AFF401B0B2863
:10134000F6D3606A052140F400306062012084F821
:101350002010B0BD217E0268012922F0800208BF62
:1013600080320260617E0268012922F0400208BFDB
:1013700040320260A17E0268012922F0200208BFEB
:1013800020320260E17E0268012922F0100218BFBB
:1013900010320260217F0268012922F0080208BF92
:1013A00008320260617F0268012922F0040208BF4E
:1013B00004320260D4E901C2D4E9033561691A43F9
:1013C0002A431143ACF101021143C1610020012104
:1013D000606284F82010B0BD10B586B0006846F693
:1013E0000002C4F2000200219042CDE90411CDE9CF
:1013F000021101912ED046F20041C4F20001884250
:1014000072D140F21441C2F200010A6843F6400072
:10141000C4F20200531C0B6052B900210091016814
:1014200041F000710160016801F0007100910099C4
:101430000021009150F8101C142441F0020140F8E2
:10144000101C50F8100C00F00200009000984FF4AF
:10145000407031E043F64000C4F2020000910168A0
:1014600041F080610160016801F0806100910099A4
:1014700040F21441C2F200010A68531C0B6052B9D9
:1014800000210091016841F000710160016801F0E4
:101490000071009100990021009150F8101C402427
:1014A00041F0020140F8101C50F8100C00F002004E
:1014B000009000984FF440500190022002900020CC
:1014C0000390032004900920059040F20040C4F2EC
:1014D000020001A900F080FD20460521002200F055
:1014E0002BFF204600F016FF06B010BD704700002D
:1014F0002DE9F04F81B02DED0A8B8AB040F61061D6
:10150000C2F20001884200F0F98040F63861C2F270
:101510000001884240F09C8240F63860C2F2000030
:101520000021FFF707FD002800F0928240F638699D
:1015300040F218449FEDE18A9FEDE19A9FEDE1AA08
:101540009FEDE1BA9FEDE1CA40F2A427C2F2000983
:101550000DF10C0B0DF10408C2F200044FF02C0A3F
:10156000C2F2000734E000BFBA8F013ABA8712B264
:10157000B7F8483000EB4230C01A09B200EE101A3A
:1015800001EE100AB8EEC00AB8EEC11A80EE080AE1
:1015900081EE092A81EE0C3A786487ED0D0A22EE7D
:1015A0000A0A20EE0B0A87ED130A23EE0A0A20EE40
:1015B0000B0A87ED140A21EE0A0A20EE0B0A87EDCA
:1015C000150A48460021FFF7B5FC002800F04082CC
:1015D000484600215A464346FFF7BCFC002840F02D
:1015E00037820398A0F201210329EAD80138C0B25A
:1015F00010FB0A40D0F8341300F548754A1C322914
:10160000C0F8342310D8BDF80400BDF80610BDF8AA
:10161000086000BA09BA000C9DF80AC00B0C31BA78
:101620002880A883090C52E0BDF80610BDF804001C
:1016300009BAB5F900600B0CBDF80810A64604BA4B
:10164000200C09BA9DF80AC0C6EB1444090CB4F585
:10165000805FEE8128806B80A98085F80CC003DD57
:101660002E8A013E08E000BF4FF200022E8ACFF61C
:10167000FF72944201DA01362E8236B2AC8B00EB57
:101680004636361B0CB200EE104A01EE106AB8EE78
:10169000C00AB8EEC11A80EE080A81EE092A81EE6E
:1016A0000C3A7446AE6185ED020A22EE0A0A20EE7B
:1016B0000B0A85ED080A23EE0A0A20EE0B0A85EDD7
:1016C000090A21EE0A0A20EE0B0A85ED0A0AB7F98B
:1016D0002C60FB85831BB3F5805F7E87B8853986D8
:1016E00087F838C03FF740AF4FF20006BA8FCFF609
:1016F000FF76B342BFF63BAF013237E740F61060EA
:10170000C2F200000021FFF715FC002800F0A081C4
:1017100040F6106A49F6780440F24C1B40F2A427C8
:101720009FEDCE8A9FEDCE9A9FEDCEAA9FEDCEBAC9
:101730009FEDCECAC2F2000A0DF10C080DF10409AA
:10174000C2F20004C2F2000BC2F2000750460021B0
:1017500042464B46FFF7FEFB002840F07981039894
:10176000A0F2012104291FD20138C0B22C2110FBA4
:101770000140D0F8981300F561754A1C3229C0F871
:10178000982335D8BDF80400BDF80610BDF80860F0
:1017900000BA09BA000C9DF80AC00B0C31BA2880B7
:1017A000A883090CCAE000BFA0F2052102293DD29E
:1017B000FB30C0B22C2110FB0140D0F8481400F2DD
:1017C00034454A1C3229C0F8482459D8BDF80400D1
:1017D000BDF80610BDF8086000BA09BA000C9DF803
:1017E0000AC00B0C31BA2880A883090CF0E000BFB6
:1017F000BDF80610BDF8040009BAB5F900600B0C7D
:10180000BDF8081004BA200C09BA9DF80AC0C6EB4E
:101810001444090CB4F5805FEE8128806B80A980A8
:1018200085F80CC054DD2E8A013E59E040F20721B4
:10183000884240F00681BDF80610BDF80400B7F9F3
:10184000002009BABDF8086003BA090C180C7980A9
:1018500031BA9DF80A60C2EB1343090CB3F5805FFF
:10186000FA813880B9803E7300F3BF804FF20006E2
:101870003A8ACFF6FF76B34280F2BA800132B6E000
:10188000BDF80610BDF8040009BAB5F900600B0CEC
:10189000BDF8081004BA200C09BA9DF80AC0C6EBBE
:1018A0001444090CB4F5805FEE8128806B80A98018
:1018B00085F80CC056DD2E8A013E5BE0CDCC4C4451
:1018C00025C61042000000390000B4434A8C914103
:1018D0004FF200022E8ACFF6FF72944201DA0136EF
:1018E0002E8236B2AC8B00EB4636361B0CB200EEC5
:1018F000104A01EE106AB8EEC00AB8EEC11A80EEC6
:10190000080A81EE092A81EE0C3A49F67804C2F2FF
:101910000004AE6185ED020A22EE0A0A20EE0B0AEF
:1019200085ED080A23EE0A0A20EE0B0A85ED090A66
:1019300021EE0A0A20EE0B0A85ED0A0ADBF80460A4
:10194000B7F9005001367B80431BCBF80460FD8162
:101950003880B980B3F5805F87F80CC07FF786AF19
:1019600043E000BF4FF200022E8ACFF6FF7294428E
:1019700001DA01362E8236B2AC8B00EB4636361BCE
:101980000CB200EE104A01EE106AB8EEC00AB8EED2
:10199000C11A80EE080A81EE092A81EE0C3A49F656
:1019A0007804C2F20004AE6185ED020A22EE0A0A52
:1019B00020EE0B0A85ED080A23EE0A0A20EE0B0A38
:1019C00085ED090A21EE0A0A20EE0B0A85ED0A0AC6
:1019D000B7F900603880FE817B80B980831BB3F546
:1019E000805F87F80CC07FF741AF3A8A013A3A82AC
:1019F00012B2BB8B00EB4230C01A09B200EE101AD3
:101A000001EE100AB8EEC00AB8EEC11A80EE080A5C
:101A100081EE092A81EE0C3AB86187ED020A22EEC6
:101A20000A0A20EE0B0A87ED080A23EE0A0A20EEC6
:101A30000B0A87ED090A21EE0A0A20EE0B0A87ED50
:101A40000A0A50460021FFF775FA00287FF47EAE9F
:101A50000AB0BDEC0A8B01B0BDE8F08FCDCC4C4490
:101A600025C61042000000390000B4434A8C914161
:101A7000704700007047000070470000B0B5044692
:101A800090F8200001281DD1022084F82000206851
:101A9000016821F00101016000F07AFB054600BFFA
:101AA00020684068C00713D000F072FB401B0B2871
:101AB000F6D3606A40F400306062052084F82000AC
:101AC0000120B0BD606A40F4002060620120B0BD1A
:101AD00000206062B0BD0000704700007047000049
:101AE000704700007047000070470000704700001A
:101AF00070470000002804BF01207047417919B1E8
:101B0000012141710020704710B500210171044688
:101B100000F008F82046BDE8104001214171002086
:101B20007047000043F63001C4F202010068A1F5DD
:101B30000362904218BF704781B00020009008688F
:101B400040F480500860086800F4805000900098CD
:101B500001B0704770B5866D044600F019FB94F82B
:101B60003510022928D105462068216C026822F030
:101B700016020260426922F08002426109B9A16C3A
:101B800019B1016821F008010160016821F001012B
:101B9000016000BF20680068C00715D000F0F8FAA7
:101BA000401B0628F6D320206065032084F835000A
:101BB000002184F8341070BD802060650120002170
:101BC00084F8341070BD00BFE06D3F2101FA00F0D1
:101BD000B060012084F835000020002184F8341022
:101BE00070BD000090F83510022909D1052180F858
:101BF00035100068016821F0010101600020704784
:101C00008021416501207047406D7047F0B581B07B
:101C10000021009140F24001C2F200010B68D0E9BE
:101C2000166148F2B51537680822C1F64E358A406C
:101C30003A42A3FB05350CD003681C68640708D53D
:101C40001C6824F004041C60B260426D42F0010282
:101C5000426501228A403A4208D003685B691B064C
:101C600004D5B260426D42F00202426504228A400D
:101C70003A4208D003681B689B0704D5B260426DE6
:101C800042F00402426510228A403A4219D00168AB
:101C90000B681B0715D5B2600B680A685B0309D493
:101CA000D20509D40A6822F008020A60016C29B939
:101CB00007E000BF110341D4016C11B1044688470D
:101CC0002046C26D202101FA02F33B4243D0016855
:101CD0000F68FF063FD5B36090F835700B68052F8D
:101CE0001CD123F016030B604B6923F080034B617A
:101CF000036C0BB9836C1BB10B6823F008030B60FA
:101D00003F219140B160012180F83510016D002222
:101D1000002980F8342054D158E000BF0A685B03E2
:101D200010D4D20512D40A6822F010020A600121F0
:101D300080F83510002180F8341007E0816C00290C
:101D4000BCD1BEE7110301D4416C00E0C16B11B1FD
:101D5000044688472046416DC1B3416DC9072ED066
:101D6000052180F835100168AA0A0B6823F00103E9
:101D70000B60009B0133934200931AD80B68DB077A
:101D800017D0009B01339342009312D80B68DB07F6
:101D90000FD0009B0133934200930AD80B68DB07F6
:101DA00007D0009B01339342009302D80B68DB07F6
:101DB000DFD1012180F83510002180F83410C16C8A
:101DC00021B101B0BDE8F040084700BF01B0F0BD4F
:101DD0002DE9F041044600F0DBF9ECB105460220A4
:101DE00084F835000020216884F83400086820F069
:101DF0000100086021680868C00711D000F0C8F928
:101E0000401B0528F6D9032520230320636584F8A9
:101E10003550BDE8F08100BF0120BDE8F08100BF72
:101E2000086848F23F02CFF21002D4E9013500EA17
:101E3000020C04F10C0898E8C10143EA0C032B439F
:101E40001843D4E9072E304338431043626A40EA0E
:101E50000E00042A40EA08031CD1206BD4E90A2EA4
:101E600040EA0E00184308604869BEF1000F20F0F8
:101E7000030040EA020040F0040C11D0B8F5005F06
:101E800036D0B8F1000F45D1022A46D0012A3BD006
:101E900032B942E00B60486920F0070040EA020CCA
:101EA00001F0F8004AF6AB221038CAF6AA22A0FBCD
:101EB00002231A094AF22E03C1F814C0C0F6000327
:101EC0009A5C40F2FF335F284FF03F0021EA0301A4
:101ED00000FA02F088BF0431C4E9161288600023BA
:101EE00001250020636584F83550BDE8F08100BF0E
:101EF000032AD5D8012540230120DFE802F0030E94
:101F0000030500BF82E700BFAEF1C070B0FA80F0F9
:101F1000400904E0032A04D3C2D1CEF300600028B4
:101F2000BED0012540230120636584F83550BDE80B
:101F3000F081000090F834C0BCF1010F04BF022012
:101F4000704770B54FF0010C80F834C0D0F858E0FD
:101F500090F835C0BCF1010F38D14FF0020C80F879
:101F600035C04FF0000CC0F854C0D0F800C08468F1
:101F7000056CC06DDCF80060402C26F48026CCF89F
:101F80000060CCF804300B4604BF13460A463F21DC
:101F900001FA00F0CCF80830CCF80C20CEF808009C
:101FA000DCF8000040F01600CCF800002DB1DCF8A1
:101FB000000040F00800CCF80000DCF8000040F021
:101FC0000100CCF80000002070BD00BF002180F8A7
:101FD0003410022070BD00002DE9F04F83B000F1F5
:101FE000200200F13E4742F20045009207F1FF77E0
:101FF000C4F202050A224FEAB726A84208BF092206
:1020000000254FF000084FF00009092E38BF4FEAB5
:10201000B72201920AE000BF09F1010908F10208A4
:10202000B9F1100F05F1040500F0A2800F6801223C
:1020300002FA09FE17EA0E0AEED0D1F804C0032214
:102040000CF003077E1E02FA08F4012E6FEA040B5F
:1020500012D88468CE6804EA0B0406FA08F6344302
:102060008460446824EA0E06CCF3001404FA09F4F0
:102070002643466004E000BF032F01D103271EE082
:10208000C6688C6806EA0B0604FA08F42643022F99
:10209000C66014D16FF00302009E02EA590756F899
:1020A00007C005F01C040F220B69A2402CEA0202B3
:1020B000A3401A43F251D1F804C00CF003070268A0
:1020C00007FA08F302EA0B021A431CF4403F0260CD
:1020D000A2D0002243F644030292C4F202031A681B
:1020E00043F6004442F480421A601A68C4F20104C4
:1020F00002F480420292029A29F003024FF6084C41
:102100002244CFF6FF7C52F80C3005F00C070F2666
:10211000BE40B343019E06FA07F73B4342F80C303A
:10212000A2684B6842EA0A0743F60C4CDE0258BF2D
:1021300022EA0A07A760C4F2010CDCF800209E0224
:1021400042EA0A0758BF22EA0A07CCF80070626820
:102150009E0342EA0A0758BF22EA0A07676022681C
:10216000DB0342EA0A0758BF22EA0A07276053E75F
:1021700003B0BDE8F08F00000069084018BF0120DF
:1021800070470000002A08BF090481617047000001
:1021900049F67400C2F200000068704740F2040083
:1021A00049F67401C2F20000C2F2000100780A6828
:1021B000104408607047000080B543F60040C4F248
:1021C0000200016841F400710160016841F480611E
:1021D0000160016841F480710160032000F0D8F8CB
:1021E0000F2000F005F800F05DF8002080BD000031
:1021F00070B586B0002543F640010195C4F2020196
:102200000A68044642F010020A60096801A801F059
:10221000100101910199694600F0BAF9049E002E5F
:1022200018BF012600F0D4F94DF68361B040C4F226
:102230001B31A0FB01014FF0FF3000EB914141F257
:10224000681041F20002C2F20000C4F2000240F243
:10225000E733C0E90021C0E902530561856100F060
:10226000F1FB08B106B070BD41F26810C2F2000087
:1022700000F018FC0028F5D1362000F04BF80F2CA8
:102280000CD836202146002200F056F840F2080112
:102290000020C2F200010C6006B070BD012006B043
:1022A00070BD000082B0002043F640010190C4F2EE
:1022B00002014A6842F480424A604A6802F480425D
:1022C0000192019A00900868002240F08050086056
:1022D00008680F2100F08050009000986FF0010016
:1022E00002B000F029B80000002848BF704700F095
:1022F0001F01012202FA01F11C2202EAD0004EF273
:102300008012CEF200028150BFF34F8FBFF36F8F68
:1023100070470000002848BF704700F01F010122ED
:1023200002FA01F11C2202EAD0004EF20012CEF2B3
:10233000000281507047000010B54EF60C5CCEF2E2
:10234000000CDCF80030C3F3022E8EF00704042CDE
:1023500028BF0424BEF103034FF0FF3E0EFA04F43D
:1023600038BF0023A14399400EFA03F39A43114367
:1023700000F00F0200F160430901043A03F56443E1
:102380006244002848BF02F10C03197010BD000020
:102390004EF60C51CEF200010A684FF6FF031A40C8
:1023A00060F30A2242F0806040F0FD7008607047E0
:1023B00070B582B00020019043F64000C4F20200E4
:1023C0000168402641F0805101600068C4F20E2689
:1023D00000F080500190019847F204050120C4F2FA
:1023E00000053060FFF7D4FE044600BF2868C00334
:1023F00006D4FFF7CDFE001BB0F57A7FF6D90EE0CC
:1024000001207060FFF7C4FE044600BF2868800307
:1024100008D4FFF7BDFE001BB0F57A7FF6D9032084
:1024200002B070BD002002B070BD0000002804BFE3
:10243000012070472DE9F04143F60808C4F2020874
:102440000446D8F8F8030D4600F00F00814207D982
:1024500088F8F853D8F8F80300F00F00A84277D1B5
:102460002068810717D5410705D5D8F8001041F439
:10247000E051C8F80010010705D5D8F8001041F464
:102480006041C8F80010D8F80010A26821F0F001EF
:102490001143C8F80010C00740D1D8F8F80300F085
:1024A0000F00854207D288F8F853D8F8F80300F0F7
:1024B0000F00A8424CD12068410707D5D8F800107A
:1024C000E26821F4E0511143C8F80010000708D574
:1024D000D8F80000216920F4604040EAC100C8F843
:1024E000000000F09DF8D8F8001049F61062C1F322
:1024F0000311C0F60002515C40F2400220FA01F1E3
:1025000040F20800C2F200000068C2F2000211604E
:10251000FFF76EFE0020BDE8F08100BF6068811EFD
:10252000022907D258F8081C89015CBF0120BDE8C8
:10253000F08111E0012807D158F8081C89035CBF1D
:102540000120BDE8F08107E058F8081C890703D492
:102550000120BDE8F08100BFD8F8001021F0030190
:102560000843C8F80000FFF713FE064641F288371B
:10257000D8F80000616800F00C00B0EB810F8CD03F
:10258000FFF706FE801BB842F2D90320BDE8F081B8
:102590000F22026043F60802C4F20202136803F03D
:1025A00003034360136803F0F0038360136803F4CC
:1025B000E053C360D2F800C04FF4E05303EADC03F9
:1025C0000361D2F8F80300F00F00086070470000C4
:1025D00040F2400043F60801C2F20000C4F20201DA
:1025E0000068096849F62062C1F38221C0F6000242
:1025F000515CC8407047000040F2400043F60801BB
:10260000C2F20000C4F202010068096849F62062C3
:10261000C1F34231C0F60002515CC840704700006F
:1026200010B543F60404C4F202046168C1F38101E9
:1026300042F20040C0F2F400DFE801F002040A02B6
:1026400010BD00BF47F64000C0F27D1010BD00BFB6
:10265000206821682368490247F64001C0F27D11D5
:1026600000F03F02C3F388105CBF42F20041C0F2A9
:10267000F401A1FB00010023FDF7B4FD2168022253
:10268000C1F3014102EB4101B0FBF1F010BD0000CC
:10269000002804BF012070472DE9F04182B00446B4
:1026A000007843F60006C007C4F202060CD0B068FA
:1026B00000F00C00042840F081803068800303D5CE
:1026C0006068002800F06881207880071BD5B0681A
:1026D00010F00C0F09D0B06800F00C00082840F092
:1026E00087807068400200F183803068800703D5DE
:1026F000E068012840F050813068216920F0F8003E
:1027000040EAC10030602078000713D420784007E9
:102710002AD4A569002D00F03A81B06800F00C00C1
:10272000082840F0A580012D40F00E81012002B064
:10273000BDE8F0816069002800F082800020C4F2CA
:1027400047200121C0F8801EFFF722FD054600BF8B
:10275000706F8007DAD4FFF71BFD401B0228F7D902
:10276000032002B0BDE8F081306C5FEAC0080AD4F3
:1027700000200190306C40F080503064306C00F0EC
:1027800080500190019847F20007C4F200073868B2
:10279000C00547D4386840F480703860FFF7F8FC13
:1027A000054600BF3868C0053CD4FFF7F1FC401B6C
:1027B0000228F7D9032002B0BDE8F081B06800F02C
:1027C0000C00082803D1706840023FF576AF6168BD
:1027D0003068B1F5803F07D0B1F5A02F40F09A8066
:1027E00040F480203060306840F4803030609AE0FF
:1027F000E068002840F20000C4F247205CD00121CC
:102800000160FFF7C5FC0546306880073FF574AFEF
:10281000FFF7BEFC401B0228F6D9032002B0BDE83A
:10282000F08100BFA168306F012905D0052955D17D
:1028300040F004003067306F40F00100306756E030
:102840000020C4F247200021C0F8801EFFF7A0FC42
:10285000054600BF706F80077FF558AFFFF798FC03
:10286000401B0228F6D9032002B0BDE8F08100BF6A
:102870000027C4F2472700203866FFF789FC022DA5
:1028800005460DD13068800140F18A80FFF780FC59
:10289000401B02284FF00300F4D902B0BDE8F081DC
:1028A0003068800173D5FFF773FC401B02284FF09E
:1028B0000300F5D9F1E700BF00210160FFF768FCD4
:1028C000054600BF306880077FF51DAFFFF760FC4D
:1028D000401B02284FF00300F4D9DEE720F001008E
:1028E0003067306F002920F0040030677AD0FFF79E
:1028F0004FFC054641F28837306F800700F1848035
:10290000FFF746FC401BB842F6D9032002B0BDE8F1
:10291000F08100BF20F4803030603068002920F45E
:10292000802030607AD0FFF733FC054630688003A2
:102930003FF5CAAEFFF72CFC401B6428F6D90320F4
:1029400002B0BDE8F08100BF7068E16900F4800268
:102950008A4221D1216A00F03F028A421CD147F607
:10296000C071626A0140B1EB821F15D1A16A4FF6B6
:10297000FF73C903994300F44032A1F580318A42C4
:102980000AD1E16A00F07060B0EB016F04D1002061
:1029900002B0BDE8F08100BF012002B0BDE8F081C7
:1029A00004F11C052FCD084340EA8210D9034FF6ED
:1029B000FF729143A1F5803140EA056008437060E1
:1029C00001203866FFF7E4FB044600BF3068800151
:1029D000DDD4FFF7DDFB001B02284FF00300F5D923
:1029E0005BE700BFFFF7D4FB054641F2883700BF25
:1029F000306F800708D5FFF7CBFB401BB8424FF084
:102A00000300F5D949E700BFB8F1000F3FF581AEEB
:102A1000306C20F0805030647BE600BFFFF7B8FBDD
:102A2000054600BF306880037FF54EAEFFF7B0FB70
:102A3000401B64284FF00300F4D92EE770470000D4
:102A400070470000002804BF0120704710B50446FD
:102A500090F83D0028B9002084F83C00204600F0A2
:102A60001FF8022084F83D002068211D03F0C0F803
:102A7000012084F8460084F83E0084F83F0084F882
:102A8000400084F8410084F8420084F8430084F850
:102A9000440084F8450084F83D00002010BD00008B
:102AA0007047000090F83D1001291CBF01207047BD
:102AB000022180F83D10006841F2FF72C168C4F243
:102AC0000002904241F00101C1600DDC40F2FF7153
:102AD000C4F20001884215DCB0F1804F2AD040F2E8
:102AE0000041C4F2000123E040F2FF31C4F20101D1
:102AF000884213DC41F60001C4F20001884219D07B
:102B0000002113E040F60001C4F20001884211D018
:102B100040F60041C4F200010AE000BF44F20001A7
:102B2000C4F20101884205D040F20041C4F2010123
:102B3000884206D1816801F00701062904BF002000
:102B40007047016841F001010160002070470000FA
:102B50007047000070B504460068C5680669B10793
:102B600016D515F0020113D06FF0020101610121A9
:102B700021778069800703D02046FFF7E9FF05E051
:102B8000204600F08FF8204600F08EF800202077D5
:102B9000700719D515F0040016D020686FF00401F5
:102BA000016102212177806910F4407F04D0204622
:102BB000FFF7CEFF06E000BF204600F073F8204686
:102BC00000F072F800202077300717D515F00800C4
:102BD00014D020686FF00801016104212177C069D9
:102BE000800703D02046FFF7B3FF05E0204600F042
:102BF00059F8204600F058F800202077F00619D543
:102C000015F0100016D020686FF010010161082146
:102C10002177C06910F4407F04D02046FFF798FF69
:102C200006E000BF204600F03DF8204600F03CF8EA
:102C300000202077F00718BF15F0010002D1300600
:102C400009D412E020686FF001010161204600F014
:102C50002DF8300609D515F0800006D020686FF0F9
:102C6000800101612046FFF7E9FE700609D515F0E5
:102C7000400006D020686FF040010161204600F05E
:102C80001FF8B00658BF70BD15F0200008D02168AD
:102C90006FF0200220460A61BDE87040FFF7D0BE09
:102CA00070BD00007047000070470000006841F2EE
:102CB0000001C4F20001884218BF7047FFF76EBAE6
:102CC0007047000070B582B090F84250202D0BD1B3
:102CD00013460A460146002A4FF0010018BF002B98
:102CE00006D102B070BD00BF022002B070BD00BFAF
:102CF0000863002622204E638A628B854E6481F829
:102D000042000C680D46C86B45F6C16C46F22101C5
:102D1000C0F6000CC0F60001C0E90FC145F64551F0
:102D2000C0F60001C0E91316211DFFF703F9E8B34F
:102D3000102068642020294685F8420001200A6B93
:102D4000012A40F0B380002200920A6813680093C1
:102D500052680092009A00BF0A6852E8032F0B687D
:102D600042F0100243E80326002EBAD00A6852E867
:102D7000032F0B6842F0100243E80326002EB0D068
:102D80000A6852E8032F0B6842F0100243E803265A
:102D9000002EA6D00A6852E8032F0B6842F01002FA
:102DA00043E80326002ED7D19BE700BF0196286891
:102DB000294602680192406801900198286928B369
:102DC000086850E8030F0A6840F4807042E8030383
:102DD000E3B1086850E8030F0A6840F4807042E8E5
:102DE00003039BB1086850E8030F0A6840F4807041
:102DF00042E8030353B1086850E8030F0A6840F43F
:102E0000807042E80303002BDAD100BF086850E865
:102E1000050F0A6840F0010042E80503BBB30868EB
:102E200050E8050F0A6840F0010042E8050373B35B
:102E3000086850E8050F0A6840F0010042E8050301
:102E40002BB3086850E8050F0A6840F0010042E81B
:102E50000503002BDAD11AE0086850E8050F0A686C
:102E600040F0400042E80503DBB1086850E8050F78
:102E70000A6840F0400042E8050393B1086850E852
:102E8000050F0A6840F0400042E805034BB10868AE
:102E900050E8050F0A6840F0400042E80503002BA7
:102EA000DAD100200A6B012A3FF44DAF012002B0B5
:102EB00070BD00007047000010B50446206850E85F
:102EC000030F216820F4907041E80302BAB3206830
:102ED00050E8030F216820F4907041E8030272B3B8
:102EE000206850E8030F216820F4907041E8030245
:102EF0002AB3206850E8030F216820F4907041E85D
:102F00000302002ADAD11AE0206850E8050F216890
:102F100020F0010041E80502DAB1206850E8050F11
:102F2000216820F0010041E8050292B1206850E8D4
:102F3000050F216820F0010041E805024AB1206830
:102F400050E8050F216820F0010041E80502002A41
:102F5000DAD1206B012824D1206850E8030F2168C2
:102F600020F0100041E80302DAB1206850E8030FB6
:102F7000216820F0100041E8030292B1206850E877
:102F8000030F216820F0100041E803024AB12068D5
:102F900050E8030F216820F0100041E80302002AE6
:102FA000DAD120684069400636D500BF206850E875
:102FB000050F216820F0400041E80502DAB12068E1
:102FC00050E8050F216820F0400041E8050292B169
:102FD000206850E8050F216820F0400041E8050214
:102FE0004AB1206850E8050F216820F0400041E810
:102FF0000502002ADAD1E06B70B100210165FEF70D
:10300000A9FD48B1E06BFEF7FFFD202804D1102098
:103010006064032010BD00BF00202021E08584F8FB
:103020004210206310BD000010B50446206850E82F
:10303000030F216820F0C00041E80302DAB12068E4
:1030400050E8030F216820F0C00041E8030292B16C
:10305000206850E8030F216820F0C00041E8030217
:103060004AB1206850E8030F216820F0C00041E811
:103070000302002ADAD120684069000636D500BF75
:10308000206850E8050F216820F0800041E8050223
:10309000DAB1206850E8050F216820F0800041E88F
:1030A000050292B1206850E8050F216820F08000E9
:1030B00041E805024AB1206850E8050F216820F078
:1030C000800041E80502002ADAD1A06B70B100212E
:1030D0000165FEF73FFD48B1A06BFEF795FD202886
:1030E00004D110206064032010BD00BF0020202107
:1030F000E08484F8411010BD006844F6FF31C4F24A
:103100000001884214DD44F60041C4F20001884207
:1031100020D041F20041C4F20101884238D041F28E
:103120000001C4F20101884218BF704702F0A2BC3E
:1031300044F20041C4F2000188422FD044F600015D
:10314000C4F2000188422BD140F69C20C2F200005C
:1031500001F012BFB0B582B000250195016841F2BF
:10316000882401914068C2F2000401900198204631
:10317000FFF7A2FE40F28421C2F2000101F8035BD6
:103180002046012202B0BDE8B04000F0E9BD00BF1A
:1031900041F2D020C2F20000FFF78EBE01F0A6B9C6
:1031A00070470000B0B582B001680A68CC684B690E
:1031B00002F02F05202D04F0200505D125B102B025
:1031C000BDE8B04002F038BF5FEA027C1EBF03F0EA
:1031D000010E04F4907313EB0E0341D1036BD5067B
:1031E00018D5012B16D114F0100313D00022019230
:1031F0000A6801924A680192019A496949064BD4CA
:10320000818DC28DC38D002B18BF914240F0068284
:1032100002B0B0BD13062DD514F080032AD090F86B
:103220004120212AF4D18268B2F5805F03D102697E
:10323000002A00F07982026A531C036212784A6005
:10324000C28C013A1304C284E2D1C86820F0800025
:10325000C860C86840F04000C86002B0B0BD00BFA0
:10326000D30718BF14F4807340F0E280530700F1D5
:10327000E580EAE05206CBD514F04002C8D0CA6817
:1032800022F04002CA60202180F8411002B0BDE85F
:10329000B04000F09BBE00BFC26B11684B68858DCB
:1032A00099B2002900F0B480A94280F0B180C385B2
:1032B000D169B1F5807F00F0A080016851E8031F5B
:1032C000026821F4807142E80313DBB1016851E820
:1032D000031F026821F4807142E8031393B101686F
:1032E00051E8031F026821F4807142E803134BB1D7
:1032F000016851E8031F026821F4807142E803135A
:10330000002BDAD1016851E8051F026821F00101A4
:1033100042E80513BBB3016851E8051F026821F0BC
:10332000010142E8051373B3016851E8051F026803
:1033300021F0010142E805132BB3016851E8051F94
:10334000026821F0010142E80513002BDAD11AE0EE
:10335000016851E8051F026821F0400142E80513A9
:10336000DBB1016851E8051F026821F0400142E825
:10337000051393B1016851E8051F026821F040016F
:1033800042E805134BB1016851E8051F026821F0BE
:10339000400142E80513002BDAD1202180F84210C9
:1033A00000210163016851E8031F026821F0100148
:1033B00042E80313DBB1016851E8031F026821F002
:1033C000100142E8031393B1016851E8031F02683A
:1033D00021F0100142E803134BB1016851E8031FCB
:1033E000026821F0100142E80313002BDAD1C16B0F
:1033F00004460846FEF7AEFB204602214163818D5C
:10340000C28D891A89B202B0BDE8B040FFF752BD43
:103410008D427FF4FDAED269B2F5807F7FF4F8AEC5
:103420000222426302B0BDE8B040FFF743BD00BFD7
:10343000436C43F001034364530706D5BEF1000F0C
:1034400003D0436C43F002034364930706D5BEF1F7
:10345000000F03D0436C43F004034364BCF1000F3E
:1034600006D55EEA050303D0436C43F008034364CA
:10347000436C002B3FF4CCAE920605D525B1044633
:1034800002F0DAFD216820464969426C01F04001F2
:1034900002F00802891800F0B98000BF016851E805
:1034A000031F026821F4907142E80313BBB3016863
:1034B00051E8031F026821F4907142E8031373B3CB
:1034C000016851E8031F026821F4907142E8031378
:1034D0002BB3016851E8031F026821F4907142E8A0
:1034E0000313002BDAD11AE0016851E8051F0268C6
:1034F00021F0010142E80513DBB1016851E8051F25
:10350000026821F0010142E8051393B1016851E816
:10351000051F026821F0010142E805134BB1016863
:1035200051E8051F026821F0010142E80513002B54
:10353000DAD1016B012924D1016851E8031F026827
:1035400021F0100142E80313DBB1016851E8031FC9
:10355000026821F0100142E8031393B1016851E8B9
:10356000031F026821F0100142E803134BB1016808
:1035700051E8031F026821F0100142E80313002BF9
:10358000DAD1202180F842100021016301684969E5
:10359000490640F1C380016851E8051F026821F027
:1035A000400142E80513DBB1016851E8051F0268DC
:1035B00021F0400142E8051393B1016851E8051F6D
:1035C000026821F0400142E805134BB1016851E85F
:1035D000051F026821F0400142E80513002BDAD1F3
:1035E000C16B002900F09A8045F63952C0F60002FE
:1035F000044608460A65FEF7F5FA00283FF408AECF
:10360000E06B016D02B0BDE8B04008470446FFF72B
:1036100073FD0020606402B0B0BD00BF891A00BF16
:10362000026852E8032F036822F4907243E80325EE
:10363000BDB3026852E8032F036822F4907243E896
:10364000032575B3026852E8032F036822F49072D1
:1036500043E803252DB3026852E8032F036822F4E0
:10366000907243E80325002DDAD11AE0026852E88F
:10367000052F036822F0010243E80525DDB1026849
:1036800052E8052F036822F0010243E8052595B1B1
:10369000026852E8052F036822F0010243E805257D
:1036A0004DB1026852E8052F036822F0010243E899
:1036B0000525002DDAD1202280F842200022026365
:1036C000026852E8032F036822F0100243E8032542
:1036D000DDB1026852E8032F036822F0100243E8CC
:1036E000032595B1026852E8032F036822F0100207
:1036F00043E803254DB1026852E8032F036822F026
:10370000100243E80325002DDAD1022289B2426378
:1037100002B0BDE8B040FFF7CDBB00BF02B0BDE8CE
:10372000B040FFF7E9BC00BF026A32F8023B6FF31A
:103730005F234B60026283E5002804BF01207047CD
:1037400010B5044690F8410028B9002084F84000E4
:10375000204600F021F8242084F841002068C16848
:1037600021F40051C160204602F0E6FC20680169A6
:1037700021F490410161416921F02A014161C16850
:1037800041F40051C16000202021606484F84110A0
:1037900084F84210606310BD2DE9F04387B0044601
:1037A000006844F6FF31C4F2000188424FF0000186
:1037B0000691CDE90411CDE9021141DD41F200414C
:1037C000C4F20101884200F0B78041F20001C4F266
:1037D0000101884200F0228144F60041C4F2000158
:1037E000884240F0FA81002043F630010190C4F293
:1037F00002010A6942F400220A610A6902F4002205
:103800000192019A01900A6842F001020A60096877
:10381000022201F0010101910199CDE90320082064
:1038200003210690002002910591C4F2020002A932
:10383000FEF7D2FB3420062100223424C8E100BF69
:1038400044F20041C4F20001884200F0578144F67E
:103850000001C4F20001884240F0BF81002643F617
:1038600030000196C4F20200016946F2280841F4D2
:10387000802101610169C4F2020801F480210191F3
:1038800001990196016841F002010160006802A9F6
:1038900000F00200019001984FF440600290022075
:1038A000CDE9030603200590072006900020C4F20E
:1038B000020000F58060FEF78FFB40F6E875C2F26B
:1038C00000054FF48070C5E906604FF480304FF07A
:1038D00000674FF48069C5E908062846C5E90087F6
:1038E000C5E90266C5E90496FEF772FA002818BF1A
:1038F000FDF72AF9E563AC6341F2480508F13000B1
:10390000C2F200054021C5E9000705F1080080E882
:1039100042022846C5E90566C5E907666E62FEF7FC
:1039200057FA002818BFFDF70FF9A563AC632720ED
:103930000521002227244BE1002643F630000196A2
:10394000C4F20200416946F2280841F020014161B9
:103950004169C4F2020801F0200101910199019628
:10396000016841F004010160006802A900F0040050
:1039700001900198C02002900220CDE903060320A7
:103980000590082006900020C4F2020000F50060B7
:10399000FEF722FB41F2A80508F58060C2F200059F
:1039A0004FF02067C5E900074FF440304FF48069BD
:1039B0004FF48071C5E908062846C5E90266C5E9E5
:1039C0000496C5E90661FEF703FA002818BFFDF763
:1039D000BBF8E563AC6341F2081508F58F60C2F2ED
:1039E00000054021C5E9000705F1080080E8420212
:1039F0004FF40030C5E908062846C5E90566EE61C2
:103A0000FEF7E6F9002818BFFDF79EF8A563AC6342
:103A10004720052100224724DAE000BF002643F6B4
:103A200030000196C4F20200416946F2280841F0D4
:103A3000100141614169C4F2020801F010010191D5
:103A400001990196016841F001010160006802A935
:103A500000F00100019001984FF4C0600290022034
:103A6000CDE9030603200590072006900020C4F24C
:103A70000200FEF7B1FA40F6686508F58360C2F20D
:103A800000054FF00067C5E900074FF400304FF420
:103A900080694FF48071C5E908062846C5E90266C9
:103AA000C5E90496C5E90661FEF792F9002818BF3A
:103AB000FDF74AF8E563AC6340F6C86508F5926027
:103AC000C2F200054021C5E9000705F1080080E8C1
:103AD00042024FF48030C5E908062846C5E905666C
:103AE000EE61FEF775F9002818BFFDF72DF8A56304
:103AF000AC63252005210022252469E0002643F639
:103B000030000196C4F20200016946F2280841F42F
:103B1000003101610169C4F2020801F40031019130
:103B200001990196016841F001010160006802A954
:103B300000F00100019001980C2002900220CDE9D4
:103B4000030603200590072006900020C4F202001F
:103B5000FEF742FA40F6287508F16000C2F200054F
:103B60004FF00067C5E900074FF400304FF480695B
:103B7000C5E908062846C5E90266C5E90496C5E90F
:103B80000666FEF725F9002818BFFCF7DDFFE563A0
:103B9000AC6340F6887508F17800C2F20005402158
:103BA000C5E9000705F1080080E842022846C5E99A
:103BB0000566C5E907666E62FEF70AF9002818BFB8
:103BC000FCF7C2FFA563AC63262005210022262452
:103BD000FEF7B2FB2046FEF79DFB07B0BDE8F08381
:103BE00070B582B090F84250202D0BD113460A4692
:103BF0000146002A4FF0010018BF002B06D102B089
:103C000070BD00BF022002B070BD00BF00262220A0
:103C10000E638A628B854E6481F842000C680D4603
:103C2000C86B45F6C16C46F22101C0F6000CC0F627
:103C30000001C0E90FC145F64551C0F60001C0E9D9
:103C40001316211DFEF776F940B11020686420207C
:103C500085F84200012002B070BD00BF01962868BF
:103C6000294602680192406801900198286928B3AA
:103C7000086850E8030F0A6840F4807042E80303C4
:103C8000E3B1086850E8030F0A6840F4807042E826
:103C900003039BB1086850E8030F0A6840F4807082
:103CA00042E8030353B1086850E8030F0A6840F480
:103CB000807042E80303002BDAD100BF086850E8A7
:103CC000050F0A6840F0010042E80503DBB308680D
:103CD00050E8050F0A6840F0010042E8050393B37D
:103CE000086850E8050F0A6840F0010042E8050343
:103CF0004BB3086850E8050F0A6840F0010042E83D
:103D00000503002BDAD11EE0086850E8050F0A68A9
:103D100040F0400042E80503FBB1086850E8050F99
:103D20000A6840F0400042E80503B3B1086850E873
:103D3000050F0A6840F0400042E80503002B4FF0F1
:103D400000003FF45CAF086850E8050F0A6840F0D7
:103D5000400042E80503002BD6D1002002B070BD20
:103D600090F84230202B07D100294FF0010318BFF3
:103D7000002A05D11846704702231846704700BF35
:103D800000230363816222218285C285436480F817
:103D900042100169006819B1C16841F48071C160C5
:103DA000416941F001014161C16841F02001C160F8
:103DB0001846704710B5006844F60041C4F200018F
:103DC000884217D044F20041C4F20001884218BF73
:103DD00010BD40F26024C2F20004207802F0C2FF5D
:103DE00041F2F810C2F2000021460122BDE8104065
:103DF000FFF7B6BF40F28424C2F200042078E178D5
:103E0000221801301171C1B20329207008D300209B
:103E1000A17920700120A1706070FEF7B9F9A0604F
:103E200041F28820E11CC2F200000122BDE81040EE
:103E3000FFF796BF704700002DE9F04381B00446BC
:103E400090F84100202809D100294FF0010018BF47
:103E5000002A07D101B0BDE8F08300BF022001B005
:103E6000BDE8F0830020606421201D460E4684F8E2
:103E700041001746FEF78CF9A784E784A1688146C4
:103E8000B1F5805F02D1206900285DD0374600205F
:103E9000E28C2168002A5DD06A1C24D0002D4AD013
:103EA000804600BF0868000608D4FEF771F9A0EB51
:103EB0000900A8427AD82168C868F3E717B117F853
:103EC000010B04E038F8020B00276FF35F20486015
:103ED000E08C0138E084E08C0028E3D13AE000BFB8
:103EE0000A68120609D40A68120606D40A6812067D
:103EF0005CBF0A685FEA0262F2D51FB117F8012BB6
:103F000005E000BF30F8022B00276FF35F224A6004
:103F1000E28C013AE284E28C002AE4D11AE000BF8C
:103F200030F8022B00276FF35F224A60E28C013ADF
:103F3000E284E28C72B10A68120635D5002FEFD008
:103F400017F8012BF1E700BF00273046E28C21680B
:103F5000002AA1D1086840061ED42DB3681C14D1D4
:103F6000086840062AD40868400627D40868400636
:103F700024D4086840064FF00000F1D50DE000BFE2
:103F80002068C1680068400618D4FEF701F9A0EB6C
:103F90000900A842F4D909E00020202184F841104A
:103FA00001B0BDE8F08300BFFEF7F2F80320202146
:103FB00084F8411001B0BDE8F08300BF002020214B
:103FC00084F8411001B0BDE8F083000070470000A4
:103FD00040F22020C2F2000090ED0E0A704700006F
:103FE00010B541F2402040F69C21C2F20000C2F21E
:103FF000000100F01BFE00281CBF012010BD40F294
:104000002024C2F2000404F118002821FCF734F93E
:1040100000204FF48071C4E90100E060A4F80110B1
:10402000207010BDF0B58BB040F22027C2F200071F
:10403000B97800220129ADF80A2017D110B305463E
:1040400040F69C200DF10A0403AEC2F2000050219C
:1040500034221023CDE9006400F0AAFE70B10128DB
:1040600008D002280ED104200BB0F0BD06200BB002
:10407000F0BD00BF05200BB0F0BD00BFBDF80A00C9
:10408000202803D202200BB0F0BD00BFBDF80C0009
:104090009FED881AC0BA00EE100AB8EEC00A20EEF2
:1040A000010ABDF80E2010EE101A2960D1BA00EEF8
:1040B000101AB8EEC00A20EE010ABDF8102010EE6A
:1040C000101A6960D1BA00EE101AB8EEC00A20EEDC
:1040D000010ABDF8122010EE101AA960D1BA00EE44
:1040E000101A9FED751AB8EEC00A20EE010ABDF84D
:1040F000142010EE101AE960D1BA00EE101AB8EED2
:10410000C00A20EE010ABDF8162010EE101A29612F
:10411000D1BA00EE101AB8EEC00A20EE010A10EE75
:10412000101A6961DDF81E10DDF8222009BADDF8E9
:10413000263000EE101A9FED612AB8EEC00A11BABF
:1041400020EE021A00EE101A19BA03EE101ABDF88A
:104150002A10B8EEC00AB8EEC33AC9BA20EE020A75
:1041600023EE024A02EE101A9FED553AB8EEC22A2B
:10417000797822EE032A284612EE102A00296A6274
:104180006CD097ED015A9FED4F7A9FED4F3A97ED26
:10419000026A25EE075A21EE031A97ED032A31EE43
:1041A000051A26EE075A20EE030A30EE050A9FEDA7
:1041B000475A34EE424AB4EE454AF1EE10FA87ED22
:1041C000011A87ED020A1DDD9FED416A34EE064AB1
:1041D000B4EE454AF1EE10FA14DD34EE064AB4EEC0
:1041E000454AF1EE10FA0DDD34EE064AB4EE454ACA
:1041F000F1EE10FA06DD34EE064AB4EE454AF1EE71
:1042000010FAE3DC9FED335AB4EE454AF1EE10FAB2
:104210001DDA9FED316A34EE064AB4EE454AF1EEFE
:1042200010FA14DA34EE064AB4EE454AF1EE10FA0A
:104230000DDA34EE064AB4EE454AF1EE10FA06DA2B
:1042400034EE064AB4EE454AF1EE10FAE3DB24EE12
:10425000033A33EE024A87ED034A07E0012187ED76
:10426000011A87ED020A87ED034A797011EE101AE0
:10427000B0EEC12AB3EE0E1A816110EE101AB4EE40
:10428000412AC16114EE101AF1EE10FA01620BDC42
:10429000B0EEC00AB4EE410AF1EE10FA04DC0020E0
:1042A00038700BB0F0BD00BF0120387000200BB09B
:1042B000F0BD00BFD5FFFF39D6FF793D6F12833ABD
:1042C0000AD7233C9A99993E3333333F0000344355
:1042D0000000B4C3000034C30000B443FEE7000094
:1042E000FCF7B4FA01F022F901F0C4FF02F0F4F88F
:1042F00040F2A83540F22C36C2F20005C2F20006A8
:104300000BE000BFFCF788FAFCF774FA02F03CF906
:1043100002F0FCF8022004F0F7FB04F02FFB95ED0F
:10432000118A95F850A095F8528095F8537095F839
:10433000544095F8559095F86BB004F043FBBBF1F1
:10434000000F13D0FDF724FF3169401AB0F57A7FD2
:104350004FF000000BD8B5EE408AF1EE10FA06D10E
:10436000706928B9FDF714FF01E000BF00207061FB
:10437000BAF1030F1CD0BAF1020F17D0BAF1010F36
:104380001AD1B8F1010F4FF0000030709EBF40F21B
:104390003C00C2F2000080F80080012F98BF7770C7
:1043A000012C3BD044B90020B07005E0012000E0B2
:1043B00002203070C6F80C90FDF7EAFE044602F0C9
:1043C0007FF8201AB0F5FA7F02D90020707107E05B
:1043D00002F07CF820B102F05DF8032898BF7071FC
:1043E0003078012808D000287FF494AFFCF7DCF97E
:1043F00000F0F0FF8EE700BF40F23C00C2F2000088
:104400004078411E0229FFF47FAFC11E0229FFF44C
:1044100079AF00283FF47AAF7CE700BF0120B0708D
:10442000CAE7000070B582B041F2F814C2F200048D
:104430002046FEF741FD2046FEF7F6FD206809E024
:1044400041680168890642BF416801685FEA81618D
:1044500008D541680168890642BF416801685FEA82
:104460008161EDD400210191026840F26024019243
:104470004068C2F200040190019840F2440041F209
:10448000F815A1606170A170E160E1702161616166
:10449000C2F200000126C2F2000549F6286106704A
:1044A000C0F60001284605226423FFF7C5FC284614
:1044B00021460122FFF754FC267102B070BD0000B6
:1044C000014600284FF0030008BF704740F2602209
:1044D000C2F20002137943B1D078002804BF012052
:1044E0007047906908600020D070704780B541F235
:1044F000F810C2F20000FEF7DFFC40F2602040F24C
:104500004402C2F200000021C2F2000201238160D5
:1045100041708170C1700161416113700171BDE82A
:104520008040FFF77FBF000086B041F2D024C2F286
:104530000004206842F20C02C1681143C1602046A9
:10454000FEF7BAFC2068C16821F02001C160C16893
:1045500021F48071C160416921F00101416147206E
:10456000FDF7C2FE05F054F9059001A82568013059
:1045700040F6BC0B40F6701400904FF00008C2F2F9
:10458000000BC2F200044FF04C0900BFC8EB08104A
:104590000BEB8006304602F03BFD706A010415D03B
:1045A00006F128010AE000BF2A68920648BF6A683F
:1045B0002A68120748BF6A68020407D02A681206F0
:1045C000F2D511F8012B01386A60EDE7FDF7E0FD47
:1045D000074600BF286840060CD42868800648BFFC
:1045E00068682868000748BF6868FDF7D1FDC01BF0
:1045F0000328EFD3FDF7CCFD0746FDF7C9FD4FF0CB
:10460000000A02E06868FDF7C3FDB8422CD12868B3
:104610000007F7D428688006F5D568681FFA8AF184
:10462000012907D0B1B9C1B2FD290DD14FF0010A5E
:1046300001A905E0C1B2EE2906D100994FF0020AA6
:104640000870FDF7A5FDE0E74FF0000AFDF7A0FDBB
:10465000DBE700BF0AF1010A1FFA8AF20F2A01AA5A
:104660005054D0D904E000BF1FFA8AF0102803D3B9
:1046700001A8102101F03AFE06F1180108FB0940DB
:1046800091EC030A00F026FD08F10108B8F1030FD0
:104690007FF47CAF05A8022104F086FA4FF00008F1
:1046A00074E7000010B58AB040F6106046F2004191
:1046B000C2F20000C4F2000100244FF4A0234FF422
:1046C000801C052280E81600C0E90343C0E905C448
:1046D0008483FCF707FE002818BFFCF735FA0E208C
:1046E00009900120CDE9070040F61060C2F20000F9
:1046F0006946049406940594CDE90044CDE902444A
:10470000FCF78AFB002818BFFCF71EFA40F6106081
:10471000C2F20000FDF7B2F9002818BFFCF714FA46
:1047200040F61060C2F200000221FCF70BFB0028EB
:1047300018BFFCF709FA0AB010BD000010B58AB026
:1047400040F6386046F60001C2F20000C4F20001F3
:1047500000244FF4A0234FF4801C052280E81600AB
:10476000C0E90343C0E905C48483FCF7BBFD00280E
:1047700018BFFCF7E9F90E2009900121059040F6D9
:104780003860CDE90711C2F200006946049406942E
:10479000CDE90044CDE90244FCF73EFB002818BFF8
:1047A000FCF7D2F940F63860C2F20000FDF766F976
:1047B000002818BFFCF7C8F940F63860C2F20000C4
:1047C0000221FCF7BFFA002818BFFCF7BDF90AB0B8
:1047D00010BD000080B540F6606043F20001C2F2F7
:1047E0000000C4F202010160FDF784F9002808BF4F
:1047F00080BDBDE88040FCF7A7B9000080B582B05D
:10480000002043F630010190C4F202010A6842F42C
:1048100080020A600A6802F480020192019A009004
:104820000868002240F4001008600868072100F4BE
:104830000010009000980C20FDF77EFD0C20FDF785
:1048400069FD0E2007210022FDF776FD0E20FDF701
:1048500061FD102005210022FDF76EFD1020FDF7FF
:1048600059FD112005210022FDF766FD1120FDF7FD
:1048700051FD392007210022FDF75EFD3920FDF7AB
:1048800049FD3A2007210022FDF756FD3A20FDF7A9
:1048900041FD452007210022FDF74EFD4520FDF793
:1048A00039FD462007210022FDF746FD462002B0D3
:1048B000BDE88040FDF72EBD80B586B0002043F6F0
:1048C00030010190C4F202010A6842F080020A60DD
:1048D0000A6802F080020192019A01900A6842F08F
:1048E00001020A600A6802F001020192019A019035
:1048F0000A6842F002020A600A6802F002020192AB
:10490000019A01900A6842F004020A60096801F005
:104910000401019101993A21019101210590CDE90C
:104920000210049040F20040C4F2020001A9FDF719
:1049300053FB06B080BD000080B541F2882044F6EC
:104940000041C2F20000C4F2000100234FF00C0C41
:104950004FF4165280E80E00C0E90333C0E905C3E6
:10496000C361FEF7E9FE002808BF80BDBDE88040B6
:10497000FCF7EAB880B541F2B01041F20001C2F292
:104980000000C4F2010100234FF00C0C4FF4E1329F
:1049900080E80E00C0E90333C0E905C3C361FEF738
:1049A000CBFE002808BF80BDBDE88040FCF7CCB836
:1049B00080B541F2F81044F20041C2F20000C4F2A6
:1049C000000100234FF00C0C4FF4E13280E80E00A0
:1049D000C0E90333C0E905C3C361FEF7ADFE00289B
:1049E00008BF80BDBDE88040FCF7AEB880B541F29D
:1049F000402044F60001C2F20000C4F2000100238E
:104A00004FF00C0C4FF4E13280E80E00C0E90333A4
:104A1000C0E905C3C361FEF78FFE002808BF80BD53
:104A2000BDE88040FCF790B880B541F2D02041F25B
:104A30000041C2F20000C4F2010140F6001200235E
:104A40004FF00C0CC0F23D0280E80E00C0E90333C9
:104A5000C0E905C3C361FEF76FFE002808BF80BD33
:104A6000BDE88040FCF770B840F22020C2F20000A0
:104A700090ED0E2A9FED683A30EE422AB4EE432ABA
:104A8000F1EE10FA1EDD9FED650A00BF32EE002A3E
:104A9000B4EE432AF1EE10FA14DD32EE002AB4EE41
:104AA000432AF1EE10FA0DDD32EE002AB4EE432A6D
:104AB000F1EE10FA06DD32EE002AB4EE432AF1EEF2
:104AC00010FAE3DC9FED560AB4EE402AF1EE10FA3C
:104AD0001EDA9FED544A00BF32EE042AB4EE402A9B
:104AE000F1EE10FA14DA32EE042AB4EE402AF1EEB6
:104AF00010FA0DDA32EE042AB4EE402AF1EE10FA82
:104B000006DA32EE042AB4EE402AF1EE10FAE3DBC4
:104B100090ED044A32EE444AB4EE434AF1EE10FA04
:104B20001EDD9FED3E5A00BF34EE054AB4EE434A07
:104B3000F1EE10FA14DD34EE054AB4EE434AF1EE1C
:104B400010FA0DDD34EE054AB4EE434AF1EE10FAE8
:104B500006DD34EE054AB4EE434AF1EE10FAE3DC2A
:104B6000B4EE404AF1EE10FA1EDA9FED2E3A00BF85
:104B700034EE034AB4EE404AF1EE10FA14DA34EEA1
:104B8000034AB4EE404AF1EE10FA0DDA34EE034A6D
:104B9000B4EE404AF1EE10FA06DA34EE034AB4EE0F
:104BA000404AF1EE10FAE3DB90ED050AB2EE043A6A
:104BB00032EE000AB4EE430AF1EE10FA80ED050A77
:104BC00006DCBAEE043AB4EE430AF1EE10FA03DA68
:104BD000B0EE430A80ED053A21EE000A20EE821A7B
:104BE00031EE000A21EE841A31EE001AB3EE0E0AFD
:104BF000B4EE401AF1EE10FA80ED042AC8BF7047F7
:104C0000BBEE0E2AB4EE421AB0EE410AF1EE10FAF3
:104C1000B8BFB0EE420A7047000034430000B4C38E
:104C2000000034C30000B443FEE7000070B582B05A
:104C3000054600284FF0010000F097800C4600293F
:104C400000F09380201D4FF45C71FBF715FBE86BBF
:104C50005021256084F86E13B0B1296840F6FF70CA
:104C6000C4F2010081424FF001002FDC44F2004207
:104C7000C4F20002914237D044F60002C4F20002AE
:104C8000914272D1272632E0002043F63001019094
:104C9000C4F202010A6842F400120A60096801F4D1
:104CA0000011019101992A6844F20041C4F2000107
:104CB0008A4246F22801C4F2020159D044F60003A8
:104CC000C4F200039A4254D06BE000BF41F20002EC
:104CD000C4F20102914209D041F20042C4F2010241
:104CE000914242D1472602E0262600E025260C20EC
:104CF0004EF2001100EAD600CEF20001405806F054
:104D00000701C840C00707D1304606210022FDF741
:104D100013FB3046FDF7FEFA2846FEF7CDF804F106
:104D2000640128464FF40072FEF75AFFC8BBE86BD7
:104D300029680068026822F008020260C86840F032
:104D40001000C860002000900A6800924968009135
:104D50000099A4F8640284F86602A4F86C03FDF7D5
:104D600017FA01460020C4F8701302B070BD00BFEE
:104D70006031264646F8041F4FF000614FF4806210
:104D80004FF480734FF4803CC6E90110C6E903027A
:104D9000C6E9050070623046C6E9073CFDF718F821
:104DA00010B1012002B070BDEE63E56355E700006D
:104DB0002DE9F04782B00446A3F17E004FF68377D9
:104DC00080B2B8424FF00600C0F0CF80002C00F057
:104DD000CC80DDF82890B9F1000F00F0C680DDF836
:104DE0002C80B8F1000F00F0C080100A8DF804008C
:104DF00000208DF805208DF806009A468DF80730C2
:104E000001AB204603220D4602F06AF820B10820CB
:104E100002B0BDE8F08700BFFDF7BAF994F866125A
:104E200061B90646FDF7B4F9801B13286ED801203E
:104E300003F06AFE94F866020028F3D0B4F86C031D
:104E4000042803D2062002B0BDE8F08794F8681267
:104E5000A94257D194F96912B1F1FF3F5ADD0329F4
:104E600064D14AF236025FFA8AFC00F0030E20F0A9
:104E7000030604F5197107F17C000025C0F6000255
:104E800011F8043F04354340DBB232F813304F7859
:104E900083EA10207840C0B232F810008F7880EAA0
:104EA00013237B40DBB232F81330CF7883EA102033
:104EB0007840C0B232F81070B54287EA1320DFD1D3
:104EC000BEF1000F36D00B79BEF1010F83EA00036B
:104ED000DBB232F813704FEA10262CD04B7987EAF8
:104EE00006005840C0B23E0A32F81070BEF1020F00
:104EF00021D0897987EA06004840C0B23E0A32F8DC
:104F0000107018E0032002B0BDE8F087012002B065
:104F1000BDE8F08704280CBFFF2094F86A0284F8EB
:104F20006F03052002B0BDE8F08700BF042002B087
:104F3000BDE8F0871E0AB7421AD1B4F86C03052108
:104F400001EB4C0181423FF67DAF94F86A024FEAD3
:104F50004C0290427FF476AFD0B2A8F8000004F281
:104F60006B214846FBF76FF9002002B0BDE8F087DF
:104F7000022002B0BDE8F087002808BF7047B0B536
:104F800082B00446006880B10025A4F8645284F819
:104F90006652A4F86C53FDF78FFF206804F164019A
:104FA0004FF40072FEF71CFE20B102B0BDE8B04025
:104FB000704700BF2068C16B006809680A6822F06A
:104FC00008020A60C16841F01001C16001950168E2
:104FD0000191406801900198FDF7DAF8C4F8700378
:104FE00002B0BDE8B0407047002871D001680029C8
:104FF00008BF70472DE9F04F81B00A681368DB06DF
:1050000063D5002300931368009352680092009ABE
:10501000C96B002959D009684A68B0F86412C2F512
:105020000075B0F86432AEB2EF1A8E42134438BF46
:10503000C3F58067390448D0B0F86412B0F8643220
:1050400000F51A7800F1640A8146B0F864028E42D5
:105050000AEB00010CD9E81A84B2B4F5827F28BFAC
:105060004FF4827440462246FBF7EDF822E000BF81
:10507000C3F5007087B23C461FFA82FBB7F5827F0A
:1050800028BF4FF4827440462246FBF7DCF8BBF59C
:10509000007F0FD0B80840280CD8C4F5827087B2C2
:1050A000BE4238BF374608EB040051463A46FBF78C
:1050B000CAF83C440120A9F86452A9F86C4389F865
:1050C0006602FDF765F8C9F8700301B0BDE8F04F5E
:1050D00070470000002808BF704790ED032A90ED4C
:1050E000053A90ED044A30EE430A30EEC43A31EE10
:1050F000421A80ED090A80ED0A3A80ED0B1A7047DA
:10510000002808BF704780B54C21FBF7B5F880BD7B
:10511000FEE70000002869D080ED070A30EEC00AE3
:1051200090ED126AB0EEC04AB4EE464A90ED0F1A06
:1051300090ED102AC0ED060A9FED785AF1EE10FAB4
:10514000B8BFB0EE450A017880ED0F0A002980ED66
:10515000101A80ED112A4DD0012940F0DB8090ED2E
:10516000015A90ED026A30EE414A31EE011A24EE06
:10517000054A20EE065A30EE410A90ED141A90EDE1
:105180000C6A32EE000AB7EE002A32EE412A90EDA8
:10519000037A20EE010A22EE061A31EE000A80EDB3
:1051A0000C0A27EE000A34EE051A90ED082A90ED5D
:1051B000043A80ED0B0A31EE000A32EE000A416B30
:1051C000B4EE430AF1EE10FA80ED094A80ED0A5A76
:1051D000816380ED0D6A80ED080AC2BF80ED083A58
:1051E000B0EE430A7047B1EE431A89E09FED4B0AD7
:1051F000704700BF90ED042A90ED087A90ED013AD7
:10520000B4EE427A20EE033AF1EE10FA80ED093A5C
:1052100004DBB5EE400AF1EE10FA29DCF1EE421A99
:10522000B4EE617AF1EE10FA04DCB5EE400AF1EE6C
:1052300010FA1DDBB4EE464A90ED136AF1EE10FA57
:10524000B8BFB0EE454AB4EE464AF1EE10FA0FDAB6
:1052500090ED025A31EE004A90ED0A6A24EE054ABA
:10526000B6EE005A24EE054A36EE044A80ED0A4AAC
:1052700090ED055A90ED0A4AB4EE454AF1EE10FA67
:1052800006DCB1EE455AB4EE454AF1EE10FA03DA07
:10529000B0EE454A80ED0A5A90ED147A90ED0C6A12
:1052A00030EE410AB7EE001A31EE471A90ED035A7C
:1052B00020EE070A21EE061AD0ED151A31EE000A8B
:1052C00025EE001A33EE043A80ED0B1A80ED0C0A3D
:1052D00020EEA10A31EE031A30EE010A416BB4EE62
:1052E000420AF1EE10FA816380ED0D6A80ED080A42
:1052F000C2BF80ED082AB0EE420A7047B1EE421AF2
:10530000B4EE410AF1EE10FABCBF80ED081AB0EE1F
:10531000410A704790ED080A704700BF0000000086
:10532000002808BF704780B518303021FAF7A4FF75
:1053300080BD0000002818BF002A01D1704700BFBF
:1053400080B5136801704360536800F148018360C1
:10535000926880ED040AC260C0ED050A81EC041A6F
:1053600020302821FAF788FF80BD000000000000EF
:10537000EFF30980BFF36F8F154B1A681EF0100F03
:1053800008BF20ED108A20E9F04F10602DE90900D8
:105390004FF0500080F31188BFF34F8FBFF36F8F32
:1053A00003F064FD4FF0000080F31188BDE80900B0
:1053B00019680868B0E8F04F1EF0100F08BFB0EC95
:1053C000108A80F30988BFF36F8F704700BF00BF5A
:1053D00050000020F0B581B040F21844C2F2000441
:1053E000B4F9220340F2042602EE100AB4F94E0387
:1053F000B8EEC22A04F58067C2F2000687ED002AE3
:1054000002EE100A307894EDD00A94EDDB1AB8EE73
:10541000C22A04F2044584EDFC0A84EDFD1A85EDF0
:10542000002A48B9012086ED010A86ED021A86EDB0
:10543000030A86ED041A307040F22E30C2F20000EA
:10544000007801280AD145F69A109FED351A9FED94
:10545000352AC4F2B730C4F8D00303E094EDF42A3F
:105460009FED2E1A96ED013A96ED024A96ED035AFB
:1054700096ED046A84EDF51A33EE022A31EE041A31
:105480009FED293A32EE452A31EE461A22EE032AE2
:1054900021EE031A72EE050A31EE061A04F16000DD
:1054A000C6ED030A86ED041AFBF726FAF0EE400A71
:1054B00097ED000A04F5E070C4EDF80AFFF72AFE44
:1054C00094EDFD1A04F58267D6ED040A87ED000A13
:1054D00004F1B800B0EE410AFBF70EFAF0EE400A14
:1054E00095ED000A04F50670C4EDF90AFFF712FE07
:1054F00097ED001A04F21447BDEEC11A11EE100A1E
:10550000BDEEC01A11EE101A0022002387ED000A2A
:1055100001B0BDE8F040FAF761BF00BF00003E44B3
:10552000000000009A59B7433333B33E2DE9F04FE2
:1055300081B02DED108B40F2184400214CF6CD4285
:10554000C2F20004C4F2A0110020C3F6CC524FF006
:105550007A53C4E90010A2600021C4E90D32002290
:105560009FED688A9FED689A9FED68BA9FED68DAB3
:105570009FED68AAC4F2901125462746C4F2701226
:105580002646A346A246A146A046B2EE00CA45F86A
:10559000301F47F80C1FC4E9040046F83C2FC4E94B
:1055A00010004BF8181FC4E907004AF8482FC4E957
:1055B000130049F8241FC4E90A0048F8542FC4E92D
:1055C000160004F1600000212246B0EE480AF0EE19
:1055D000490AB0EE4B1AF0EE4C1AB0EE4D2AF0EE3E
:1055E0004A2AFBF795FA9FED4CFADFED4C8AB1EEB3
:1055F00004EA04F5E07000212A46B0EE480AF0EE15
:10560000490AB0EE4E1AF0EE4F1AB0EE682AF0EEEC
:105610004A2AFFF78FFE04F1B80000213A46B0EEA7
:10562000480AF0EE490AB0EE4B1AF0EE4C1AB0EE12
:105630004D2AF0EE4A2AFBF76BFA04F506700021BA
:105640003246B0EE480AF0EE490AB0EE4E1AF0EEDD
:105650004F1AB0EE682AF0EE4A2AFFF76BFE04F507
:10566000887000215A46B0EE480AF0EE490AB0EEC2
:105670004B1AF0EE4C1AB0EE4D2AF0EE4A2AFBF728
:1056800047FA04F51C7000215246B0EE480AF0EECD
:10569000490AB0EE4E1AF0EE4F1AB0EE682AF0EE5C
:1056A0004A2AFFF747FE04F5B47000214A46B0EEDF
:1056B000480AF0EE490AB0EE4B1AF0EE4C1AB0EE82
:1056C0004D2AF0EE4A2AFBF723FA04F53270002146
:1056D0004246B0EE480AF0EE490AB0EE4E1AF0EE3D
:1056E0004F1AB0EE682AF0EE4A2AFFF723FE002098
:1056F000002100220023BDEC108B01B0BDE8F04F6B
:10570000FAF76CBE00401C460000FA449A99193E14
:10571000CDCC4C3F0000000000007A436666E63EB8
:105720002DE9F04F83B003F029F941F22840C2F28D
:1057300000000DF10B010122FBF710FA044603F003
:1057400041F9002C00F0F48040F2F00BC2F2000BA3
:1057500041F2284A0BF13004C2F2000A0DF10B08A5
:105760000325009411E000BF20462C21FAF784FDA8
:1057700003F004F9504641460122FBF7EFF90746D2
:1057800003F020F9002F00F0D3809BF85A00032883
:10579000EAD8DFE800F003B90F1D00BF9DF80B0049
:1057A000AA28E5D1AA208BF8300040F20110ABF80E
:1057B0005A00DDE79BF85B009DF80B100BEB000235
:1057C00001308BF85B0082F830108BF85A50CFE72D
:1057D0009BF85B009DF80B105844EE2980F83010C0
:1057E000C2D19BF858000021002301900BEB01026D
:1057F00092F8317092F8320007F001056B40C7F360
:10580000400583EAD713C7F380066B40C7F3C00493
:105810007340C7F3001E6340C7F3401983EA0E03C9
:10582000C7F3801C83EA090383EA0C0300F0010735
:105830007B40C0F34007C0F38006C0F3C005C0F34F
:105840000014C0F3401CC0F3801E83EAD0107840DF
:105850007040684092F83320604080EA0C0080EA93
:105860000E0002F001035840C2F3400380EAD21058
:10587000C2F380075840C2F3C0067840C2F3001557
:105880007040C2F340146840C2F3801C6040033192
:10589000272980EA0C03A9D10198009C83424FF08C
:1058A00003057FF461AFDBF83100DBF83510DBF87E
:1058B0003920CBE90201BBF83D00DBF84710ABF81B
:1058C0001400DBF84300CBF81E10CBF81A00DBF80D
:1058D0004B00DBF84F10CBF82200DBF85300DBF86D
:1058E0003F30CBF826109BF85710CBF82A00012048
:1058F000CBF81020CBF816308BF82E108BF82F0039
:105900008BF8000030E700BF9BF85B009DF80B10A0
:105910000BEB000201308BF85B0082F830109BF833
:105920005B00282824BF02208BF85A0020E700BF24
:1059300003B0BDE8F08F0000B0B540F2F005C2F250
:1059400000052978002431B105F108012822FAF771
:105950007AFC2C7001242046B0BD0000016841F2A1
:105960000002C4F20102914200D070471268D206D0
:1059700058BF7047F0B581B0002200920A6840F22B
:10598000F00500924968C2F2000500910099C06BD1
:10599000006840686988C0F18006B4B28C4229D0A2
:1059A00069886B8841F2A83CC2F2000C6A888C427C
:1059B0000CEB030106D9B01A82B241F22840C2F2C0
:1059C000000014E087B2C2F1800082B241F22840A8
:1059D000C2F20000FBF73CF9802F0AD041F22840C8
:1059E00041F2A831C2F20000C2F200012246FBF7E8
:1059F0002FF96E80FCF7CCFB686001B0BDE8F04089
:105A00007047000070B582B040F2F005C2F20005A8
:105A100005F108002821FAF72FFC002605F13000D7
:105A20002C212E70FAF728FC41F22840C2F2000027
:105A3000FBF78EF841F2B014C2F2000420466E80EB
:105A4000FDF73AFA41F2A831C2F200012046802265
:105A5000FEF7C6F82068C16841F01001C1600196E8
:105A600001680191406801900198FCF791FB686022
:105A700002B070BDB0B582B040F2F00041F2B01497
:105A8000C2F200000025C2F2000445802046FDF766
:105A900013FA41F2A831C2F2000120468022FEF73B
:105AA0009FF82068C16841F01001C160019501684C
:105AB000019140680190019802B0B0BD0000000063
:105AC000074B19680868B0E8F04F80F30988BFF306
:105AD0006F8F4FF0000080F31188704700BF00BF48
