:020000040800F2
:10000000D09A0020C1010008F55100080541000800
:10001000D94D0008FD0200088965000800000000B5
:10002000000000000000000000000000515D00081A
:10003000E505000800000000715B0008755D000820
:10004000DB010008DB010008DB010008DB01000820
:10005000DB010008DB010008DB010008DB01000810
:10006000DB010008DB010008DB010008DB01000800
:10007000B5050008DB010008C1050008DB01000828
:10008000DB010008DB010008DB010008DB010008E0
:1000900001030008DB010008DB010008DB010008A8
:1000A000DB010008DB010008DB010008DB010008C0
:1000B000DB010008DB010008DB010008DB010008B0
:1000C000DB010008DB010008DB010008DB010008A0
:1000D000DB0100085D650008DB0100087D650008A4
:1000E000DB010008DB010008DB010008DB01000880
:1000F000DB010008DB010008DB010008DB01000870
:10010000DB010008DB010008DB010008DB0100085F
:10011000DB010008DB010008755E0008DB01000858
:10012000DB010008DB010008CD050008DB01000849
:10013000DB010008DB010008DB010008DB0100082F
:100140000D030008DB010008DB010008DB010008EB
:10015000DB010008DB010008D9050008DB0100080D
:10016000DB010008DB010008DB010008DB010008FF
:10017000DB010008DB010008DB01000800000000D3
:10018000DB010008DB010008DB010008DB010008DF
:10019000DB010008DB010008DB010008DB010008CF
:1001A000DB010008DB010008DB010008DFF80CD0F0
:1001B00000F08CF80048004795670008D09A0020AE
:1001C0000648804706480047FEE7FEE7FEE7FEE7F1
:1001D000FEE7FEE7FEE7FEE7FEE7FEE7615E0008FA
:1001E000AD0100082DE9F05F0546002092469B46D0
:1001F00088460646814640241BE02846414647463D
:10020000224600F053F853465A46C01A914110D383
:1002100011461846224600F03AF82D1A67EB0108FD
:100220004F4622460120002100F031F817EB00096B
:100230004E41201EA4F10104DFDC484631462A4627
:100240004346BDE8F09F40EA01039B0703D009E065
:1002500008C9121F08C0042AFAD203E011F8013BB2
:1002600000F8013B521EF9D27047D2B201E000F80B
:10027000012B491EFBD270470022F6E710B513464A
:100280000A4604461946FFF7F0FF204610BD202A13
:1002900004DB203A00FA02F1002070479140C2F1DD
:1002A000200320FA03F3194390407047202A04DB0F
:1002B000203A21FA02F00021704721FA02F3D040DF
:1002C000C2F1200291400843194670471CB5094805
:1002D0000090094801900546009C06E0E06840F067
:1002E000010394E8070098471034AC42F6D3FFF7B7
:1002F00061FF00003880000858800008FEE7000019
:1003000040F6FC70C2F2000000F018BE41F224007A
:10031000C2F2000000F012BE80B582B040F2D802F6
:10032000C2F20002030A02F8183F40F2FF1394469B
:100330005070080A4CF8383F0023907041F22400B6
:100340004FF0080EC2E9103382F84C30D170536080
:10035000C2F2000001AB6146C2F848E000F06AFC5E
:1003600002B080BD10B582B040F2D80EC2F2000ECD
:10037000030A0EF8103F8EF80100080A40F2FF133E
:10038000F4468EF80200100A4CF8283F00238EF83D
:10039000040040F6FC700824CEE90C338EF83C30A3
:1003A0008EF803108EF80520AEF80630C2F2000079
:1003B00001AB61467246CEF8384000F03BFC02B01B
:1003C00010BD0000B0B582B040F2D80CC2F2000CF3
:1003D0004FEA102E0CF808EF8CF80100080A8CF890
:1003E0000200100A4FF40074E6468CF80400180A64
:1003F0004EF8184F8CF8060040F6FC7000240825D3
:100400008CF803108CF805208CF80730C2F200003D
:1004100001AB71466246CCE90844CCF828508CF810
:100420002C4000F007FC02B0B0BD000040F20A0012
:10043000C2F20000B0F90A000021C82840F2E01022
:10044000C2F20000C8BF012141707047F0B581B011
:1004500040F20A07C2F20007B7F9100040F2004468
:1004600040F24015C4F20204B0F5967F4FF000024E
:10047000C2F2000520464FF010014FF00006A8BF61
:100480000122AA7001F062FDB7F912000022B0F556
:10049000967F20464FF00801A8BF0122EA7001F0C4
:1004A00055FDB7F90E000022B0F5967F20464FF0BB
:1004B0002001A8BF01226A7001F048FD04F54060E8
:1004C000202100226E7101F041FD6878287001B092
:1004D000F0BD0000F0B581B040F20A07C2F200079B
:1004E000B7F90E0040F2004440F24016C4F2020494
:1004F000B0F5967F4FF00002C2F2000604F54060AE
:100500004FF020014FF00005A8BF0122727101F0E9
:100510001DFDB7F90C000022B0F5967F20464FF084
:100520000201A8BF0122327101F010FD327820468D
:1005300020217270002A18BF012201F007FD204619
:1005400010210022B57001F001FD20460821002293
:10055000F57001B0BDE8F04001F0F8BC70B540F2B4
:10056000004440F24015C4F20204C2F20005002625
:100570002046202100226E7001F0E8FC2046102168
:100580000022AE7001F0E2FC204608210022EE704D
:1005900001F0DCFC2046022100222E7101F0D6FC85
:1005A00004F54060202100226E71BDE8704001F02A
:1005B000CDBC000041F20C10C2F2000001F010BAF4
:1005C00041F26C10C2F2000001F00ABA41F24C0094
:1005D000C2F2000001F004BA41F2AC00C2F2000025
:1005E00001F0FEB970470000002871D080ED070AC5
:1005F00030EEC00A90ED125AB0EEC04AB4EE454A51
:1006000090ED0F2A90ED103AC0ED060A9FED881A82
:10061000F1EE10FAB8BFB0EE410A017880ED0F0A92
:10062000002980ED102A80ED113A55D0012940F0C3
:100630008F8090ED015AD0ED020A90ED147A30EEE1
:10064000424A32EE022A90ED0C6A24EE054A20EE70
:10065000205A416B30EE420AB5EE407AF1EE10FAC4
:1006600033EE000A80ED094A80ED0A5A816380ED7D
:100670000D6A08DBB7EE001AB4EE417AF1EE10FA1B
:10068000D8BFB0EE471AB7EE002A32EE412A20EE6C
:10069000010A22EE061A90ED032A31EE000A90EDCF
:1006A000083A22EE002A80ED0C0A34EE050A90ED9D
:1006B000041A30EE020A33EE000A80ED0B2AB4EE83
:1006C000410AF1EE10FA80ED080A40F3A380A9E098
:1006D0009FED570A704700BF90ED041A90ED086A2D
:1006E00090ED013AB4EE416A20EE033AF1EE10FAD1
:1006F00080ED093A04DBB5EE400AF1EE10FA3BDC7E
:10070000B1EE417AB4EE476AF1EE10FA04DCB5EED0
:10071000400AF1EE10FA2FDB90ED136AB4EE454A71
:10072000F1EE10FAB5EE406A9FED417AB8BFB0EE37
:10073000474AF1EE10FA0FD0B4EE464AF1EE10FA45
:100740000ADB90ED0A4A9FED3B5A24EE054A11E080
:1007500090ED080A704700BF90ED025A32EE004A51
:1007600090ED0A6A24EE054AB6EE005A24EE054AD8
:1007700034EE064A80ED0A4A90ED144AD0E90C2185
:10078000B5EE404AF1EE10FAC0E90D2102DA9FED14
:10079000284A08E0B7EE005AB4EE454AF1EE10FAE6
:1007A000C8BFB0EE454A90ED036A30EE422A80EDB4
:1007B0000C2A90ED050A90ED0A5A90ED157A22EE7A
:1007C000062AB7EE006A36EE446A26EE076A24EE81
:1007D000022AB4EE405A32EE062AF1EE10FA80ED0B
:1007E0000B2A80ED152A06DCB1EE400AB4EE405A21
:1007F000F1EE10FA03DAB0EE405A80ED0A0A33EE59
:10080000050A32EE000AB4EE410AF1EE10FA80ED6C
:10081000080A07DCB1EE411AB4EE410AF1EE10FA13
:10082000A8BF7047B0EE410A80ED081A704700BFBC
:1008300000000000CDCC4C3F002808BF704780B5B9
:100840000021416518303021FFF716FD80BD000002
:10085000002818BF002A01D1704700BF80B5136877
:1008600001704360536800F148018360926880ED35
:10087000040AC260C0ED050A81EC041A2030282168
:10088000FFF7FAFC80BD000072B600BFFEE7000073
:10089000B0B52DED028B0446FFF7C8FD40F2683578
:1008A000C2F20005B5F9920195ED700A02EE100A48
:1008B000B5F9C60195ED791A03EE100A40F2481019
:1008C000C2F200000178B8EEC22AB8EEC33A01299C
:1008D00085ED820A85ED831A85ED842A85ED853ABA
:1008E00004D190ED012A90ED021A0AE046F65C71FF
:1008F000C4F295319FED5F2A4160012180ED021A1B
:10090000017040F2E110C2F2000095ED7E4A0078DD
:1009100095ED7F3A012872EE040A75D1002C59D06A
:100920009FED555AF4EE450AF1EE10FA12DB9FEDF9
:10093000535AF4EE450AF1EE10FA0BDC9FED545ACF
:10094000B1EE086A30EE855AB0EEC55A85EE065A09
:100950002EE000BFB9EE085A32EE055AF4EE450A11
:10096000F1EE10FAB1EE085A0ADB32EE056AF4EE47
:10097000460AF1EE10FA03DC30EEC26A14E000BF62
:100980009FED406AF4EE460AF1EE10FAB7EE006A07
:1009900016DB9FED3D7AF4EE470AF1EE10FA0FDC1C
:1009A0009FED3A6A30EE866AB0EEC66A86EE055A68
:1009B000B6EE006A9FED327A25EE065A35EE076AEA
:1009C00040F2FC10C2F2000090ED005A25EE065AEB
:1009D00034EE454A9FED306A9FED2E5A36EE426A5C
:1009E00035EE425AB4EE446AF1EE10FAB8BFB0EEFA
:1009F000464AB4EE445AF1EE10FAC8BFB0EE454A8A
:100A000072EE040A85ED7E4A05F1300031EE038A6C
:100A1000FFF7EAFDF0EE400A95ED840A05F1E000EB
:100A2000C5ED800A04F076FF95ED831A85ED860A00
:100A300005F18800B0EE410AF0EE480AFFF7D4FD58
:100A4000F0EE400A95ED850A05F59C70C5ED810A2A
:100A500004F060FF95ED861A0021BDEEC11A11EE7B
:100A6000100A85ED870ABDEC028BBDE8B040FFF7A8
:100A700053BC00BF5C6F954300004A4300005643DF
:100A8000CDCC4C3D0000C1430000C7430000C4C3AF
:100A9000000050C30000D2420080984370B52DED95
:100AA0000A8B40F26834C2F200040020C4F2C8107D
:100AB000224642F8180F4CF28F20C3F675504FF0C3
:100AC0008041C4E907010020C4F2A0204DF20A7160
:100AD000C3F6A3414FF07C5384E80B000020C4F21E
:100AE0005010264646F8240F4CF6CD404CF6CD412A
:100AF000C3F64C50C3F6CC51C4E90A010020C4F23D
:100B00002010254645F80C0F4DF20A7049F69A114F
:100B10009FED319A9FED31AAC3F6A350C3F69961B8
:100B20009FED2B0AB6EE008ADFED2A1AC4E9040114
:100B300004F13000F3EE040A0021B0EE481AB0EEE2
:100B4000492AF0EE4A2AFFF783FE9FED250ADFEDE2
:100B5000250ADFED251A04F1E000B2EE041A0021A7
:100B60002246B0EE482AF0EE482A04F0E3FF9FED5B
:100B700020BA9FED20CA9FED1D0A04F188000021D4
:100B80003246F0EE4B0AB0EE481AF0EE4C1AB0EED8
:100B9000492AF0EE4A2AFFF75BFE9FED170ADFEDC8
:100BA000170ADFED172A04F59C7000212A46B0EEE3
:100BB0004C1AF0EE4B1AB0EE492A04F0BBFF0020AD
:100BC0000021BDEC0A8BBDE87040FFF7A5BB00BF5C
:100BD00000001644000070429A99993E00000000FF
:100BE00000606A4600007A450000484200803B46AB
:100BF00000007A440000A04200401C460000FA4475
:100C0000CDCCCC3D90F82020013A012A08D80068CC
:100C100000F114020020136819431160704700BFEF
:100C200000F1240201204FF4802113681943116060
:100C30007047000010B590F820E0D0F800C0AEF189
:100C4000010EBEF1010FDCF808E011D81EF0E05FE4
:100C500018D0CEF301640120A04018608B68DBB18E
:100C6000D1F804E0C86840EACE0040EA030E17E07D
:100C700000F1240301204FF480211A681143196008
:100C800010BD00BF00F1240301204FF400111A68C9
:100C90001143196010BD00BF0868CB6843EA405E8D
:100CA0000CF5C07000EB0413240140F804E00C695B
:100CB000184640F8044F097D012903D1016841F429
:100CC0008071016050680121D86010689860002030
:100CD0001A681143196010BD90F82020013A012ACA
:100CE00030D8B0B546F20060C4F20000026842F0AD
:100CF00001020260026822F47C520260D1F814E022
:100D0000CC694A6A0368012C43EA022202600EF0B1
:100D10001F024FF0010303FA02F2C3696FEA020CEB
:100D200023EA0203C36113D02CBBC36803EA0C039C
:100D3000C360CB688C8844EA034300EBCE04236491
:100D40000B4611E0416A41F4802141620120704765
:100D5000C3681343C3600B688C8844EA034300EB09
:100D6000CE04236401F10C038C681B8843EA04431E
:100D700000EBCE04636443688D6943EA0204D1F852
:100D800010E0096A002D08BF03EA0C0444604369BF
:100D9000BEF1000F43EA020408BF03EA0C04012974
:100DA000446102D1C1691143C161016821F00101AF
:100DB00001600020B0BD000010B5044600F014F83A
:100DC00040F6FC71C2F200018C4240F2D801C2F23E
:100DD000000107D041F22402C2F20002944218BF7F
:100DE00010BD0431086010BD406A704790F82020A3
:100DF000013A012A84BF00207047006810220029B0
:100E000008BF0C22805800F003007047B0B590F87E
:100E10002040013C012C7DD8D0F800C000290CBF37
:100E2000DCF80C40DCF81040A4077DD00CF5D87538
:100E30004FEA011C55F80C4014F00404946055F876
:100E40000CE005EB011C19BF4FEADE0555604FEAC7
:100E50005E551560DCF80050E64605F00205D560E9
:100E60005EF8044F24075ABFDEF8004004F00F0478
:100E700008241461DEF800400029C4F307249461BB
:100E8000DEF800504FEA15455561DCF808201A706D
:100E9000026802EB0112D2F8B8214FEA12225A700E
:100EA000026802EB0112D2F8B8214FEA12429A709E
:100EB000026802EB0112D2F8B8214FEA1262DA702E
:100EC000026802EB0112D2F8BC211A71026802EB2F
:100ED0000112D2F8BC214FEA12225A71026802EBC9
:100EE0000112D2F8BC214FEA12429A71026802EB59
:100EF0000112D2F8BC214FEA1262DA7100680CBF0D
:100F000000F10C0100F11001002020220B681A43AF
:100F10000A60B0BD00F1240101204FF480220B686B
:100F20001A430A60B0BD00BF00F1240101204FF454
:100F300000120B681A430A60B0BD00002DE9F04FA3
:100F400081B0044600684669D0F804908768D0F8FC
:100F50000CB0D0F810A0D0F81880F10704D100250B
:100F600030071DD424E000BFF90710D00121BA07D3
:100F7000816009D4780700F1AF80380700F1B680AE
:100F8000204600F0C3FC02E0204600F0C1FC002532
:100F9000F80500F18780F80300F1B180300707D52C
:100FA0001BF0100004D0206845F400751021C160CA
:100FB000700708D51BF0080005D020680821C16023
:100FC000204600F0EFF9B00706D52068C06880071A
:100FD00002D0204600F0E8F9700607D51AF010009C
:100FE00004D0206845F4806510210161B00608D561
:100FF0001AF0080005D0206808210161204600F0A1
:1010000051FCF00606D520680069800702D0204612
:1010100000F04AFCB00308D519F0100005D0206894
:1010200010214160204600F041FCF00308D519F082
:10103000080005D0206808214160204600F072FCBD
:10104000300440F19B805FEA497040F1948006F4DF
:10105000807008EA102028435FEA8871014648BF83
:1010600041F00201B20558BF01465FEA48700D46E3
:1010700048BF45F00405700558BF0D46300540F1E6
:101080007A8018F0700000F076801038000905288A
:101090006CD8DFE800F003655D61596945F008052B
:1010A00064E000BF20684FF48071BA0581600BD402
:1010B000780515D438051DD4204600F02BFCF80324
:1010C0007FF56CAF1BE000BF204600F025FCF80365
:1010D0007FF564AF13E000BF4FF4006558E700BF31
:1010E00005F50055F8037FF559AF08E04FF480553A
:1010F0004EE700BF05F58045F8037FF54FAF206848
:101100004FF48031BA0381600AD4780310D43803D5
:1011100014D4204600F002FC30073FF541AF47E70A
:10112000204600F0FDFB30073FF53AAF40E700BF37
:1011300005F5004530073FF533AF39E705F5803554
:1011400030073FF52DAF33E745F080050EE000BFD7
:1011500045F020050AE000BF45F0400506E000BF6D
:1011600045F0100502E000BF45F4807520688169F4
:1011700021F07001816120680421416055B1606AED
:1011800040EA05012046616201B0BDE8F04FFFF77B
:1011900013BE00BF01B0BDE8F08F0000002804BFFF
:1011A00001207047B0B5044690F8200010B92046E1
:1011B00000F06EF82068016841F00101016000F064
:1011C000CBFE054620684168C90705D100F0C4FE82
:1011D000401B0B28F6D310E0016821F002010160EA
:1011E00000F0BAFE054600BF2068416889070DD5AA
:1011F00000F0B2FE401B0B28F6D3606A052140F4D4
:1012000000306062012084F82010B0BD217E0268A9
:10121000012922F0800208BF80320260617E0268EC
:10122000012922F0400208BF40320260A17E02681C
:10123000012922F0200208BF20320260E17E02680C
:10124000012922F0100218BF10320260217F0268CB
:10125000012922F0080208BF08320260617F02689B
:10126000012922F0040208BF04320260D4E901C25D
:10127000D4E9033561691A432A431143ACF10102F1
:101280001143C16100200121606284F82010B0BDCB
:1012900010B586B0006846F60002C4F200020021D4
:1012A0009042CDE90411CDE9021101912ED046F210
:1012B0000041C4F20001884272D140F28851C2F26A
:1012C00000010A6843F64000C4F20200531C0B60A0
:1012D00052B900210091016841F00071016001687C
:1012E00001F00071009100990021009150F8101C4C
:1012F000142441F0020140F8101C50F8100C00F0CA
:101300000200009000984FF4407031E043F6400036
:10131000C4F202000091016841F08061016001683F
:1013200001F080610091009940F28851C2F2000101
:101330000A68531C0B6052B900210091016841F00A
:1013400000710160016801F00071009100990021B5
:10135000009150F8101C402441F0020140F8101C8C
:1013600050F8100C00F00200009000984FF440502C
:101370000190022002900020039003200490092095
:10138000059040F20040C4F2020001A900F00EFDF9
:1013900020460521002200F09DFE204600F088FE38
:1013A00006B010BD704700002DE9F04F81B02DED63
:1013B0000A8B8AB0006846F20041C4F200018842FC
:1013C00000F0068146F60001C4F20001884240F0B8
:1013D000598241F22400C2F200000021FFF706FD0D
:1013E000002800F04F8241F2240940F268349FED5A
:1013F000E88A9FEDE89A9FEDE8AA9FEDE8BA9FED95
:10140000E8CA40F28027C2F200090DF10C0B0DF181
:101410000408C2F200044FF0340AC2F200073AE0B6
:10142000B7F84420013AA7F8442012B2B7F8503078
:1014300000EB4230C21A09B200EE101A01EE102A77
:10144000B8EEC00AB8EEC11A80EE080A81EE092A89
:1014500081EE0C1AFA64F86587ED0F0A22EE0A0A8B
:1014600020EE0B0A87ED150A21EE0A0A20EE0B0A80
:1014700087ED160A00EE100AB8EEC00A20EE0A0A3E
:1014800020EE0B0A87ED190A48460021FFF7AEFC53
:10149000002800F0F781484600215A464346FFF7EE
:1014A000B5FC002840F0EE810398A0F20521012947
:1014B000EAD8FB30C0B210FB0A41D1F8A40101F513
:1014C000C875322812D8BDF804100130686108BA16
:1014D000BDF80610BDF8086009BA000C9DF80AC0F6
:1014E0000B0C31BA2880A883090C57E0BDF8061010
:1014F000BDF8040009BAB5F900600B0CBDF808107E
:10150000A64604BA200C09BA9DF80AC0C6EB1444DA
:10151000090CB4F5805FEE8128806B80A98085F886
:101520000CC003DD2E8A013E08E000BF4FF200022E
:101530002E8ACFF6FF72944201DA01362E8236B23D
:10154000AC8B00EB4636341B0AB200EE102A01EEDB
:10155000104AB8EEC00AB8EEC11A80EE080A81EE51
:10156000092A81EE0C1AAC617446AE6285ED020A5E
:1015700022EE0A0A20EE0B0A85ED080A21EE0A0A7D
:1015800020EE0B0A85ED090A00EE106AB8EEC00ADB
:1015900020EE0A0A20EE0B0A85ED0C0AB7F934207A
:1015A000FB86831AB3F5805FA7F84220B886398797
:1015B00087F840C03FF734AF4FF20006B7F8442039
:1015C000CFF6FF76B342BFF630AF01322BE700BF54
:1015D00040F6FC70C2F200000021FFF707FC002873
:1015E00000F0508140F6FC7940F280279FEDA88AF8
:1015F0009FEDA89A9FEDA8AA9FEDA8BA9FEDA8CA53
:10160000C2F200090DF10C0B0DF104084FF0340A81
:10161000C2F2000739E000BF398A4A1E3A8211B28D
:10162000BA8B00EB4130811A0FFA8CF200EE102ACF
:1016300001EE101AB8EEC00AB8EEC11A80EE080A20
:1016400081EE092A81EE0C1AB961B86287ED020AAF
:1016500022EE0A0A20EE0B0A87ED080A21EE0A0A9A
:1016600020EE0B0A87ED090A00EE100AB8EEC00A58
:1016700020EE0A0A20EE0B0A87ED0C0A48460021EC
:10168000FFF7B4FB002800F0FD80484600215A46D1
:101690004346FFF7BBFB002840F0F4800398A0F21C
:1016A000012104292CD2013840F6A401C0B2C2F2B3
:1016B000000110FB0A11D1F8D00201F52F75322874
:1016C00032D9BDF80610BDF8040009BAB5F90060BA
:1016D0000B0CBDF8081004BA200C09BA9DF80A20BA
:1016E000C6EB14444FEA114CB4F5805FEE812880BC
:1016F0006B80A5F804C02A732ADD2E8A013E2FE0F4
:10170000A0F205210329B9D2FB30C0B20228B5D816
:1017100040F28C51C2F2000110FB0A11D1F86C02A8
:1017200001F5167532283DD8BDF804100130686106
:1017300008BABDF80610BDF8086009BA000C9DF89B
:101740000A200B0C31BA2880A8834FEA114C81E0A3
:101750004FF200012E8ACFF6FF718C4201DA01367A
:101760002E8236B2AC8B00EB4636341B0FFA8CF16E
:1017700000EE101A01EE104AB8EEC00AB8EEC11A17
:1017800080EE080A81EE092A81EE0C1AAC6148E06D
:10179000CDCC4C4425C61042000000390000B443B3
:1017A0004A8C9141BDF80620BDF8040012BA130C12
:1017B000BDF80820B5F9001006BA12BA4FEA124C6B
:1017C0009DF80A20C1EB1644300CB4F5805FE98126
:1017D00028806B80A5F804C02A7303DD298A4E1E79
:1017E00008E000BF4FF200012E8ACFF6FF718C4255
:1017F00001DA01362E8231B2AC8B00EB4136311B5F
:101800000FFA8CF400EE104A01EE101AB8EEC00A7E
:10181000B8EEC11A80EE080A81EE092A81EE0C1A90
:10182000A96185ED020A22EE0A0A20EE0B0A85ED77
:10183000080A21EE0A0A20EE0B0A85ED090A00EEDD
:10184000106AB8EEC00A20EE0A0A20EE0B0A85EDF7
:101850000C0AAE62B7F900107B80431AB3F5805FC3
:10186000F9813880A7F804C03A733FF7D5AE4FF23C
:1018700000013A8ACFF6FF718B42BFF6D0AE01323B
:10188000CCE600BF0AB0BDEC0A8B01B0BDE8F08F1A
:10189000CDCC4C4425C61042000000390000B443B2
:1018A0004A8C91417047000070470000704700006B
:1018B000B0B5044690F8200001281DD1022084F81C
:1018C00020002068016821F00101016000F044FB64
:1018D000054600BF20684068C00713D000F03CFBFD
:1018E000401B0B28F6D3606A40F40030606205208C
:1018F00084F820000120B0BD606A40F400206062DE
:101900000120B0BD00206062B0BD00007047000043
:1019100070470000704700007047000070470000EB
:10192000704700007047000070B5866D044600F0F7
:1019300013FB94F83510022928D105462068216C44
:10194000026822F016020260426922F080024261BF
:1019500009B9A16C19B1016821F0080101600168A1
:1019600021F00101016000BF20680068C00715D0A8
:1019700000F0F2FA401B0628F6D320206065032011
:1019800084F83500002184F8341070BD8020606533
:101990000120002184F8341070BD00BFE06D3F21AC
:1019A00001FA00F0B060012084F835000020002129
:1019B00084F8341070BD000090F83510022909D168
:1019C000052180F835100068016821F001010160EF
:1019D000002070478021416501207047406D7047AD
:1019E000F0B581B00021009140F23001C2F2000157
:1019F0000B68D0E9166148F2B51537680822C1F6C0
:101A00004E358A403A42A3FB05350CD003681C686A
:101A1000640708D51C6824F004041C60B260426DA1
:101A200042F00102426501228A403A4208D003682E
:101A30005B691B0604D5B260426D42F0020242654A
:101A400004228A403A4208D003681B689B0704D5E9
:101A5000B260426D42F00402426510228A403A426E
:101A600019D001680B681B0715D5B2600B680A68AE
:101A70005B0309D4D20509D40A6822F008020A607F
:101A8000016C29B907E000BF110341D4016C11B109
:101A9000044688472046C26D202101FA02F33B42EA
:101AA00043D001680F68FF063FD5B36090F83570EA
:101AB0000B68052F1CD123F016030B604B6923F034
:101AC00080034B61036C0BB9836C1BB10B6823F073
:101AD00008030B603F219140B160012180F835106F
:101AE000016D0022002980F8342054D158E000BF55
:101AF0000A685B0310D4D20512D40A6822F01002DF
:101B00000A60012180F83510002180F8341007E0C8
:101B1000816C0029BCD1BEE7110301D4416C00E007
:101B2000C16B11B1044688472046416DC1B3416D78
:101B3000C9072ED0052180F835100168AA0A0B6864
:101B400023F001030B60009B0133934200931AD8EA
:101B50000B68DB0717D0009B01339342009312D828
:101B60000B68DB070FD0009B0133934200930AD828
:101B70000B68DB0707D0009B01339342009302D828
:101B80000B68DB07DFD1012180F83510002180F8D8
:101B90003410C16C21B101B0BDE8F040084700BF6E
:101BA00001B0F0BD2DE9F041044600F0D5F9ECB1EB
:101BB0000546022084F835000020216884F83400AE
:101BC000086820F00100086021680868C00711D08B
:101BD00000F0C2F9401B0528F6D903252023032075
:101BE000636584F83550BDE8F08100BF0120BDE891
:101BF000F08100BF086848F23F02CFF21002D4E93A
:101C0000013500EA020C04F10C0898E8C10143EA2E
:101C10000C032B431843D4E9072E304338431043B9
:101C2000626A40EA0E00042A40EA08031CD1206BD5
:101C3000D4E90A2E40EA0E00184308604869BEF154
:101C4000000F20F0030040EA020040F0040C11D025
:101C5000B8F5005F36D0B8F1000F45D1022A46D062
:101C6000012A3BD032B942E00B60486920F00700FE
:101C700040EA020C01F0F8004AF6AB221038CAF62E
:101C8000AA22A0FB02231A0947F62E63C1F814C04A
:101C9000C0F600039A5C40F2FF335F284FF03F002C
:101CA00021EA030100FA02F088BF0431C4E91612E8
:101CB0008860002301250020636584F83550BDE865
:101CC000F08100BF032AD5D8012540230120DFE899
:101CD00002F0030E030500BF82E700BFAEF1C07043
:101CE000B0FA80F0400904E0032A04D3C2D1CEF355
:101CF00000600028BED0012540230120636584F8E0
:101D00003550BDE8F081000090F834C0BCF1010FFF
:101D100004BF0220704770B54FF0010C80F834C04A
:101D2000D0F858E090F835C0BCF1010F38D14FF031
:101D3000020C80F835C04FF0000CC0F854C0D0F849
:101D400000C08468056CC06DDCF80060402C26F48F
:101D50008026CCF80060CCF804300B4604BF134654
:101D60000A463F2101FA00F0CCF80830CCF80C20EC
:101D7000CEF80800DCF8000040F01600CCF80000B7
:101D80002DB1DCF8000040F00800CCF80000DCF8D1
:101D9000000040F00100CCF80000002070BD00BF42
:101DA000002180F83410022070BD00002DE9F04FB2
:101DB00083B000F1200200F13E4742F2004500925C
:101DC00007F1FF77C4F202050A224FEAB726A842BC
:101DD00008BF092200254FF000084FF00009092E26
:101DE00038BF4FEAB72201920AE000BF09F10109AA
:101DF00008F10208B9F1100F05F1040500F0A28006
:101E00000F68012202FA09FE17EA0E0AEED0D1F895
:101E100004C003220CF003077E1E02FA08F4012E10
:101E20006FEA040B12D88468CE6804EA0B0406FA41
:101E300008F634438460446824EA0E06CCF30014A8
:101E400004FA09F42643466004E000BF032F01D1E1
:101E500003271EE0C6688C6806EA0B0604FA08F43D
:101E60002643022FC66014D16FF00302009E02EADF
:101E7000590756F807C005F01C040F220B69A24051
:101E80002CEA0202A3401A43F251D1F804C00CF02C
:101E90000307026807FA08F302EA0B021A431CF46C
:101EA000403F0260A2D0002243F644030292C4F2F3
:101EB00002031A6843F6004442F480421A601A682A
:101EC000C4F2010402F480420292029A29F0030251
:101ED0004FF6084C2244CFF6FF7C52F80C3005F048
:101EE0000C070F26BE40B343019E06FA07F73B439B
:101EF00042F80C30A2684B6842EA0A0743F60C4CE1
:101F0000DE0258BF22EA0A07A760C4F2010CDCF81F
:101F100000209E0242EA0A0758BF22EA0A07CCF8CC
:101F2000007062689E0342EA0A0758BF22EA0A0765
:101F300067602268DB0342EA0A0758BF22EA0A0701
:101F4000276053E703B0BDE8F08F0000002A08BF08
:101F5000090481617047000049F27840C2F2000034
:101F60000068704740F2000049F27841C2F2000078
:101F7000C2F2000100780A6810440860704700004F
:101F800080B543F60040C4F20200016841F40071DC
:101F90000160016841F480610160016841F4807171
:101FA0000160032000F0C2F80F2000F005F800F0F7
:101FB0005DF8002080BD000070B586B0002543F6B6
:101FC00040010195C4F202010A68044642F0100281
:101FD0000A60096801A801F01001019101996946A0
:101FE00000F0A4F9049E002E18BF012600F0BEF9EF
:101FF0004DF68361B040C4F21B31A0FB01014FF0EC
:10200000FF3000EB914141F2CC1041F20002C2F2EC
:102010000000C4F2000240F2E733C0E90021C0E949
:1020200002530561856100F0DBFB08B106B070BDAD
:1020300041F2CC10C2F2000000F002FC0028F5D101
:10204000362000F035F80F2C0CD83620214600221F
:1020500000F040F840F204010020C2F200010C60E0
:1020600006B070BD012006B070BD000082B0002037
:1020700043F640010190C4F202014A6842F48042F2
:102080004A604A6802F480420192019A009008680E
:10209000002240F08050086008680F2100F0805056
:1020A000009000986FF0010002B000F013B800003B
:1020B000002848BF704700F01F01012202FA01F119
:1020C0001C2202EAD0004EF20012CEF20002815031
:1020D0007047000010B54EF60C5CCEF2000CDCF838
:1020E0000030C3F3022E8EF00704042C28BF042412
:1020F000BEF103034FF0FF3E0EFA04F438BF002395
:10210000A14399400EFA03F39A43114300F00F02E2
:1021100000F160430901043A03F564436244002876
:1021200048BF02F10C03197010BD00004EF60C51AF
:10213000CEF200010A684FF6FF031A4060F30A224C
:1021400042F0806040F0FD700860704770B582B06A
:102150000020019043F64000C4F2020001684026CE
:1021600041F0805101600068C4F20E2600F08050FA
:102170000190019847F204050120C4F20005306087
:10218000FFF7EAFE044600BF2868C00306D4FFF745
:10219000E3FE001BB0F57A7FF6D90EE001207060F7
:1021A000FFF7DAFE044600BF2868800308D4FFF773
:1021B000D3FE001BB0F57A7FF6D9032002B070BDC4
:1021C000002002B070BD0000002804BF012070474D
:1021D0002DE9F04143F60808C4F202080446D8F895
:1021E000F8030D4600F00F00814207D988F8F85334
:1021F000D8F8F80300F00F00A84277D120688107D3
:1022000017D5410705D5D8F8001041F4E051C8F8BA
:102210000010010705D5D8F8001041F46041C8F856
:102220000010D8F80010A26821F0F0011143C8F89E
:102230000010C00740D1D8F8F80300F00F00854225
:1022400007D288F8F853D8F8F80300F00F00A84236
:102250004CD12068410707D5D8F80010E26821F476
:10226000E0511143C8F80010000708D5D8F8000065
:10227000216920F4604040EAC100C8F8000000F085
:102280009DF8D8F8001047F61662C1F30311C0F6A6
:102290000002515C40F2300220FA01F140F20400E9
:1022A000C2F200000068C2F200021160FFF784FE73
:1022B0000020BDE8F08100BF6068811E022907D2BE
:1022C00058F8081C89015CBF0120BDE8F08111E0CD
:1022D000012807D158F8081C89035CBF0120BDE81C
:1022E000F08107E058F8081C890703D40120BDE8F5
:1022F000F08100BFD8F8001021F003010843C8F8AE
:102300000000FFF729FE064641F28837D8F80000A2
:10231000616800F00C00B0EB810F8CD0FFF71CFE61
:10232000801BB842F2D90320BDE8F0810F22026081
:1023300043F60802C4F20202136803F00303436089
:10234000136803F0F0038360136803F4E053C36081
:10235000D2F800C04FF4E05303EADC030361D2F883
:10236000F80300F00F0008607047000040F23000F2
:1023700043F60801C2F20000C4F2020100680968D5
:1023800047F62662C1F38221C0F60002515CC840C4
:102390007047000040F2300043F60801C2F200002E
:1023A000C4F202010068096847F62662C1F34231AF
:1023B000C0F60002515CC8407047000010B543F6FB
:1023C0000404C4F202046168C1F3810142F20040D6
:1023D000C0F2F400DFE801F002040A0210BD00BF01
:1023E00047F64000C0F27D1010BD00BF2068216894
:1023F0002368490247F64001C0F27D1100F03F0218
:10240000C3F388105CBF42F20041C0F2F401A1FBAB
:1024100000010023FDF7E6FE21680222C1F301411D
:1024200002EB4101B0FBF1F010BD0000002804BF39
:10243000012070472DE9F04182B00446007843F650
:102440000006C007C4F202060CD0B06800F00C0011
:10245000042840F081803068800303D5606800283C
:1024600000F06881207880071BD5B06810F00C0F51
:1024700009D0B06800F00C00082840F08780706830
:10248000400200F183803068800703D5E0680128AE
:1024900040F050813068216920F0F80040EAC10026
:1024A00030602078000713D4207840072AD4A5692B
:1024B000002D00F03A81B06800F00C00082840F0D0
:1024C000A580012D40F00E81012002B0BDE8F08111
:1024D0006069002800F082800020C4F247200121BA
:1024E000C0F8801EFFF738FD054600BF706F8007FB
:1024F000DAD4FFF731FD401B0228F7D9032002B0E0
:10250000BDE8F081306C5FEAC0080AD40020019079
:10251000306C40F080503064306C00F0805001909E
:10252000019847F20007C4F200073868C00547D495
:10253000386840F480703860FFF70EFD054600BF34
:102540003868C0053CD4FFF707FD401B0228F7D9C7
:10255000032002B0BDE8F081B06800F00C0008284C
:1025600003D1706840023FF576AF61683068B1F51D
:10257000803F07D0B1F5A02F40F09A8040F4802032
:102580003060306840F4803030609AE0E0680028C5
:1025900040F20000C4F247205CD001210160FFF747
:1025A000DBFC0546306880073FF574AFFFF7D4FCCD
:1025B000401B0228F6D9032002B0BDE8F08100BF1D
:1025C000A168306F012905D0052955D140F00400DC
:1025D0003067306F40F00100306756E00020C4F2F1
:1025E00047200021C0F8801EFFF7B6FC054600BF5B
:1025F000706F80077FF558AFFFF7AEFC401B0228D5
:10260000F6D9032002B0BDE8F08100BF0027C4F274
:10261000472700203866FFF79FFC022D05460DD1A5
:102620003068800140F18A80FFF796FC401B022849
:102630004FF00300F4D902B0BDE8F08130688001AA
:1026400073D5FFF789FC401B02284FF00300F5D932
:10265000F1E700BF00210160FFF77EFC054600BFE7
:10266000306880077FF51DAFFFF776FC401B02281E
:102670004FF00300F4D9DEE720F001003067306F3F
:10268000002920F0040030677AD0FFF765FC05468A
:1026900041F28837306F800700F18480FFF75CFCDF
:1026A000401BB842F6D9032002B0BDE8F08100BF5C
:1026B00020F4803030603068002920F480203060C1
:1026C0007AD0FFF749FC0546306880033FF5CAAE73
:1026D000FFF742FC401B6428F6D9032002B0BDE896
:1026E000F08100BF7068E16900F480028A4221D164
:1026F000216A00F03F028A421CD147F6C071626A2B
:102700000140B1EB821F15D1A16A4FF6FF73C903D7
:10271000994300F44032A1F580318A420AD1E16A3E
:1027200000F07060B0EB016F04D1002002B0BDE892
:10273000F08100BF012002B0BDE8F08104F11C056A
:102740002FCD084340EA8210D9034FF6FF72914320
:10275000A1F5803140EA05600843706001203866C9
:10276000FFF7FAFB044600BF30688001DDD4FFF7B5
:10277000F3FB001B02284FF00300F5D95BE700BF15
:10278000FFF7EAFB054641F2883700BF306F80074C
:1027900008D5FFF7E1FB401BB8424FF00300F5D925
:1027A00049E700BFB8F1000F3FF581AE306C20F073
:1027B000805030647BE600BFFFF7CEFB054600BFCC
:1027C000306880037FF54EAEFFF7C6FB401B6428E0
:1027D0004FF00300F4D92EE7704700007047000067
:1027E000002804BF0120704710B5044690F83D0052
:1027F00028B9002084F83C00204600F01FF8022091
:1028000084F83D002068211D03F03AFB012084F884
:10281000460084F83E0084F83F0084F8400084F8C5
:10282000410084F8420084F8430084F8440084F8AE
:10283000450084F83D00002010BD000070470000F6
:1028400090F83D1001291CBF01207047022180F83B
:102850003D10006841F2FF72C168C4F2000290426C
:1028600041F00101C1600DDC40F2FF71C4F20001D2
:10287000884215DCB0F1804F2AD040F20041C4F20A
:10288000000123E040F2FF31C4F20101884213DC71
:1028900041F60001C4F20001884219D0002113E082
:1028A00040F60001C4F20001884211D040F6004118
:1028B000C4F200010AE000BF44F20001C4F20101C9
:1028C000884205D040F20041C4F20101884206D19D
:1028D000816801F00701062904BF002070470168E4
:1028E00041F00101016000207047000070470000C6
:1028F00070B504460068C5680669B10716D515F0BD
:10290000020113D06FF0020101610121217780697A
:10291000800703D02046FFF7E9FF05E0204600F0DE
:102920008FF8204600F08EF800202077700719D528
:1029300015F0040016D020686FF004010161022137
:102940002177806910F4407F04D02046FFF7CEFF46
:1029500006E000BF204600F073F8204600F072F851
:1029600000202077300717D515F0080014D0206814
:102970006FF00801016104212177C069800703D04D
:102980002046FFF7B3FF05E0204600F059F8204647
:1029900000F058F800202077F00619D515F0100047
:1029A00016D020686FF01001016108212177C069FD
:1029B00010F4407F04D02046FFF798FF06E000BFE8
:1029C000204600F03DF8204600F03CF8002020773B
:1029D000F00718BF15F0010002D1300609D412E04B
:1029E00020686FF001010161204600F02DF83006EB
:1029F00009D515F0800006D020686FF080010161D4
:102A00002046FFF7E9FE700609D515F0400006D014
:102A100020686FF040010161204600F01FF8B00609
:102A200058BF70BD15F0200008D021686FF020025B
:102A300020460A61BDE87040FFF7D0BE70BD0000BF
:102A40007047000070470000006841F20001C4F2C6
:102A50000001884218BF7047FFF784BA7047000032
:102A600070B582B090F84250202D0BD113460A4623
:102A70000146002A4FF0010018BF002B06D102B01A
:102A800070BD00BF022002B070BD00BF0863002609
:102A900022204E638A628B854E6481F842000C6866
:102AA0000D46C86B46F2451C46F2A521C0F6000C47
:102AB000C0F60001C0E90FC145F6C971C0F60001BA
:102AC000C0E91316211DFFF71FF9E8B31020686451
:102AD0002020294685F8420001200A6B012A40F097
:102AE000B380002200920A68136800935268009233
:102AF000009A00BF0A6852E8032F0B6842F01002E8
:102B000043E80326002EBAD00A6852E8032F0B6868
:102B100042F0100243E80326002EB0D00A6852E8C3
:102B2000032F0B6842F0100243E80326002EA6D0C4
:102B30000A6852E8032F0B6842F0100243E80326AC
:102B4000002ED7D19BE700BF01962868294602686E
:102B50000192406801900198286928B3086850E8FC
:102B6000030F0A6840F4807042E80303E3B1086889
:102B700050E8030F0A6840F4807042E803039BB1F9
:102B8000086850E8030F0A6840F4807042E80303C5
:102B900053B1086850E8030F0A6840F4807042E8B7
:102BA0000303002BDAD100BF086850E8050F0A685C
:102BB00040F0010042E80503BBB3086850E8050F88
:102BC0000A6840F0010042E8050373B3086850E862
:102BD000050F0A6840F0010042E805032BB30868BE
:102BE00050E8050F0A6840F0010042E80503002B99
:102BF000DAD11AE0086850E8050F0A6840F0400092
:102C000042E80503DBB1086850E8050F0A6840F0A8
:102C1000400042E8050393B1086850E8050F0A68D0
:102C200040F0400042E805034BB1086850E8050F4A
:102C30000A6840F0400042E80503002BDAD100208A
:102C40000A6B012A3FF44DAF012002B070BD0000B5
:102C5000006844F60002C4F20002904218BF7047B8
:102C60002DE9F04F81B040F2E8240029C2F20004BF
:102C700000F05F8120786578042901F0030200925A
:102C800030D20027009E002E00F05381274497F891
:102C90003C100F2908BF002800F0DE80002800F05B
:102CA0003781013554FA85F2C3076570917200F0DF
:102CB000DC80E9B21829C0F0D88094F822100020F6
:102CC0000029207040F0D18004F1230004F10A01B2
:102CD0001922FDF7B8FA0120A0700020012E40F063
:102CE000C68026E121F0030600274FF00F094FF0C0
:102CF000FF0A4FF0010B0AE0012000252080A5709B
:102D000084F80A9084F822A00437BE42BAD004EBBB
:102D1000070898F83C100F2908BF00281AD0B8B14E
:102D2000013554FA85F2C307657091721AD0E9B281
:102D3000182917D394F822100020207091B904F1BB
:102D4000230004F10A011922FDF77DFA84F802B08C
:102D5000002007E0012000252080A57084F80A905B
:102D600084F822A098F83D100F2908BF00281BD036
:102D7000B8B1013554FA85F2C307657091721BD062
:102D8000E9B2182918D394F822100020207099B9BC
:102D900004F1230004F10A011922FDF754FA84F822
:102DA00002B0002008E000BF012000252080A570AF
:102DB00084F80A9084F822A098F83E100F2908BFE2
:102DC00000281BD0B8B1013554FA85F2C3076570ED
:102DD00091721BD0E9B2182918D394F82210002060
:102DE000207099B904F1230004F10A011922FDF7BA
:102DF0002AFA84F802B0002008E000BF0120002574
:102E00002080A57084F80A9084F822A098F83F10DA
:102E10000F2908BF00283FF46FAFD8B1013554FA2D
:102E200085F2C307657091723FF46EAFE9B218295D
:102E3000FFF46AAF94F822100020002920707FF47C
:102E400063AF04F1230004F10A011922FDF7FBF935
:102E500084F802B0002057E70F2101200025A1725D
:102E6000FF212080A57084F82210012E61D097F8F0
:102E70003D100F2908BF00281ED0002856D001356C
:102E800054FA85F2C307657091721ED0E9B2182911
:102E90001BD394F8221000202070B1B904F1230054
:102EA00004F10A011922FDF7CEF90120A0700020DB
:102EB000022E0CD13DE000BF0F2101200025A172A0
:102EC000FF212080A57084F82210022E31D097F8BF
:102ED0003E100F2908BF00281ED050B36A1C54FAB8
:102EE00082F3C0076270997223D0D0B2182820D321
:102EF00094F8220000212170D8B904F1230004F1D4
:102F00000A011922FDF79FF90120A07011E000BF0E
:102F10000020012EABD10CE0012020800020A07009
:102F20000F20A072FF2084F8220002E00020022E71
:102F3000CDD104F13C0141F2A424C2F200042046A8
:102F40001922FFF78DFD18B101B0BDE8F04F7047B1
:102F5000E06B0068016821F00801016001B0BDE884
:102F6000F04F704710B50446206850E8030F216801
:102F700020F4907041E80302BAB3206850E8030FD0
:102F8000216820F4907041E8030272B3206850E891
:102F9000030F216820F4907041E803022AB32068EF
:102FA00050E8030F216820F4907041E80302002AE2
:102FB000DAD11AE0206850E8050F216820F00100FE
:102FC00041E80502DAB1206850E8050F216820F0D9
:102FD000010041E8050292B1206850E8050F216820
:102FE00020F0010041E805024AB1206850E8050FD1
:102FF000216820F0010041E80502002ADAD1206BA7
:10300000012824D1206850E8030F216820F0100027
:1030100041E80302DAB1206850E8030F216820F08C
:10302000100041E8030292B1206850E8030F2168C4
:1030300020F0100041E803024AB1206850E8030F75
:10304000216820F0100041E80302002ADAD120684C
:103050004069400636D500BF206850E8050F21685A
:1030600020F0400041E80502DAB1206850E8050F81
:10307000216820F0400041E8050292B1206850E844
:10308000050F216820F0400041E805024AB12068A0
:1030900050E8050F216820F0400041E80502002AB1
:1030A000DAD1E06B70B100210165FEF73DFC48B15B
:1030B000E06BFEF793FC202804D11020606403200D
:1030C00010BD00BF00202021E08584F8421020635D
:1030D00010BD0000006844F60001C4F200018842FF
:1030E00018BF704710B541F2A424C2F20004204674
:1030F000FFF738FF40F2E820C2F2000000F13C0187
:1031000020461922FFF7ACFC10B1BDE81040704713
:10311000E06B0068016821F008010160BDE8104023
:1031200070470000B0B582B001680A68CC684B698E
:1031300002F02F05202D04F0200505D125B102B0A5
:10314000BDE8B04003F016B95FEA027C1EBF03F091
:10315000010E04F4907313EB0E0341D1036BD506FB
:1031600018D5012B16D114F0100313D000220192B0
:103170000A6801924A680192019A496949064BD44A
:10318000818DC28DC38D002B18BF914240F0068205
:1031900002B0B0BD13062DD514F080032AD090F8EC
:1031A0004120212AF4D18268B2F5805F03D10269FF
:1031B000002A00F07982026A531C036212784A6086
:1031C000C28C013A1304C284E2D1C86820F08000A6
:1031D000C860C86840F04000C86002B0B0BD00BF21
:1031E000D30718BF14F4807340F0E280530700F156
:1031F000E580EAE05206CBD514F04002C8D0CA6898
:1032000022F04002CA60202180F8411002B0BDE8DF
:10321000B04000F0ABBD00BFC26B11684B68858D3C
:1032200099B2002900F0B480A94280F0B180C38532
:10323000D169B1F5807F00F0A080016851E8031FDB
:10324000026821F4807142E80313DBB1016851E8A0
:10325000031F026821F4807142E8031393B10168EF
:1032600051E8031F026821F4807142E803134BB157
:10327000016851E8031F026821F4807142E80313DA
:10328000002BDAD1016851E8051F026821F0010125
:1032900042E80513BBB3016851E8051F026821F03D
:1032A000010142E8051373B3016851E8051F026884
:1032B00021F0010142E805132BB3016851E8051F15
:1032C000026821F0010142E80513002BDAD11AE06F
:1032D000016851E8051F026821F0400142E805132A
:1032E000DBB1016851E8051F026821F0400142E8A6
:1032F000051393B1016851E8051F026821F04001F0
:1033000042E805134BB1016851E8051F026821F03E
:10331000400142E80513002BDAD1202180F8421049
:1033200000210163016851E8031F026821F01001C8
:1033300042E80313DBB1016851E8031F026821F082
:10334000100142E8031393B1016851E8031F0268BA
:1033500021F0100142E803134BB1016851E8031F4B
:10336000026821F0100142E80313002BDAD1C16B8F
:1033700004460846FEF7D8FA204602214163818DB3
:10338000C28D891A89B202B0BDE8B040FFF760BCB7
:103390008D427FF4FDAED269B2F5807F7FF4F8AE46
:1033A0000222426302B0BDE8B040FFF751BC00BF4B
:1033B000436C43F001034364530706D5BEF1000F8D
:1033C00003D0436C43F002034364930706D5BEF178
:1033D000000F03D0436C43F004034364BCF1000FBF
:1033E00006D55EEA050303D0436C43F0080343644B
:1033F000436C002B3FF4CCAE920605D525B10446B4
:1034000002F0B8FF216820464969426C01F0400192
:1034100002F00802891800F0B98000BF016851E885
:10342000031F026821F4907142E80313BBB30168E3
:1034300051E8031F026821F4907142E8031373B34B
:10344000016851E8031F026821F4907142E80313F8
:103450002BB3016851E8031F026821F4907142E820
:103460000313002BDAD11AE0016851E8051F026846
:1034700021F0010142E80513DBB1016851E8051FA5
:10348000026821F0010142E8051393B1016851E897
:10349000051F026821F0010142E805134BB10168E4
:1034A00051E8051F026821F0010142E80513002BD5
:1034B000DAD1016B012924D1016851E8031F0268A8
:1034C00021F0100142E80313DBB1016851E8031F4A
:1034D000026821F0100142E8031393B1016851E83A
:1034E000031F026821F0100142E803134BB1016889
:1034F00051E8031F026821F0100142E80313002B7A
:10350000DAD1202180F84210002101630168496965
:10351000490640F1C380016851E8051F026821F0A7
:10352000400142E80513DBB1016851E8051F02685C
:1035300021F0400142E8051393B1016851E8051FED
:10354000026821F0400142E805134BB1016851E8DF
:10355000051F026821F0400142E80513002BDAD173
:10356000C16B002900F09A8045F6BD72C0F60002DA
:10357000044608460A65FEF71FFA00283FF408AE25
:10358000E06B016D02B0BDE8B04008470446FFF7AC
:10359000A1FD0020606402B0B0BD00BF891A00BF69
:1035A000026852E8032F036822F4907243E803256F
:1035B000BDB3026852E8032F036822F4907243E817
:1035C000032575B3026852E8032F036822F4907252
:1035D00043E803252DB3026852E8032F036822F461
:1035E000907243E80325002DDAD11AE0026852E810
:1035F000052F036822F0010243E80525DDB10268CA
:1036000052E8052F036822F0010243E8052595B131
:10361000026852E8052F036822F0010243E80525FD
:103620004DB1026852E8052F036822F0010243E819
:103630000525002DDAD1202280F8422000220263E5
:10364000026852E8032F036822F0100243E80325C2
:10365000DDB1026852E8032F036822F0100243E84C
:10366000032595B1026852E8032F036822F0100287
:1036700043E803254DB1026852E8032F036822F0A6
:10368000100243E80325002DDAD1022289B24263F9
:1036900002B0BDE8B040FFF7DBBA00BF02B0BDE842
:1036A000B040FFF717BD00BF026A32F8023B6FF36C
:1036B0005F234B60026283E5002804BF012070474E
:1036C00010B5044690F8410028B9002084F8400065
:1036D000204600F021F8242084F841002068C168C9
:1036E00021F40051C160204602F0C4FE2068016947
:1036F00021F490410161416921F02A014161C168D1
:1037000041F40051C16000202021606484F8411020
:1037100084F84210606310BD2DE9F04387B0044681
:10372000216844F20042C4F2000200209142CDE937
:103730000500CDE90300029000F0F68044F6000099
:10374000C4F20000814279D041F20000C4F20100CD
:10375000814240F0E680002643F630000196C4F234
:103760000200416946F2280841F0100141614169B7
:10377000C4F2020801F0100101910199019601685B
:1037800041F001010160006802A900F00100019010
:1037900001984FF4C06002900220CDE90306032097
:1037A0000590072006900020C4F20200FEF7FEFA02
:1037B00041F24C0508F58360C2F200054FF0006746
:1037C000C5E900074FF400304FF480694FF4807171
:1037D000C5E908062846C5E90266C5E90496C5E9B3
:1037E0000661FEF7DFF9002818BFFDF74DF8E56325
:1037F000AC6341F2AC0508F59260C2F200054021CD
:10380000C5E9000705F1080080E842024FF4803066
:10381000C5E908062846C5E90566EE61FEF7C2F966
:10382000002818BFFDF730F8252006210022A563E7
:10383000AC63FEF74FFC252071E000BF002643F685
:1038400030000196C4F20200016946F2280841F4F2
:10385000802101610169C4F2020801F48021019113
:1038600001990196016841F002010160006802A916
:1038700000F00200019001984FF440600290022095
:10388000CDE9030603200590072006900020C4F22E
:10389000020000F58060FEF789FA41F20C15C2F2D1
:1038A00000054FF48070C5E906604FF440304FF0DA
:1038B00000674FF48069C5E908062846C5E9008716
:1038C000C5E90266C5E90496FEF76CF9002818BF41
:1038D000FCF7DAFFE563AC6341F26C1508F13000E8
:1038E000C2F200054021C5E9000705F1080080E8A3
:1038F00042024FF40030C5E908062846C5E90566CE
:10390000EE61FEF74FF9002818BFFCF7BDFF272036
:1039100006210022A563AC63FEF7DCFB2720FEF73F
:10392000C7FB07B0BDE8F08343F630010190C4F255
:1039300002010A6942F400320A610A6902F40032A3
:103940000192019A01900A6842F001020A60096836
:1039500001F00101019101990C2102910221CDE9AF
:10396000031003200590072006900020C4F20200F7
:1039700002A9FEF71BFA07B0BDE8F08370B582B06C
:1039800090F84250202D0BD113460A460146002ADA
:103990004FF0010018BF002B06D102B070BD00BF70
:1039A000022002B070BD00BF002622200E638A6292
:1039B0008B854E6481F842000C680D46C86B46F258
:1039C000451C46F2A521C0F6000CC0F60001C0E976
:1039D0000FC145F6C971C0F60001C0E91316211DDB
:1039E000FEF792F940B110206864202085F842006B
:1039F000012002B070BD00BF019628682946026808
:103A00000192406801900198286928B3086850E83D
:103A1000030F0A6840F4807042E80303E3B10868CA
:103A200050E8030F0A6840F4807042E803039BB13A
:103A3000086850E8030F0A6840F4807042E8030306
:103A400053B1086850E8030F0A6840F4807042E8F8
:103A50000303002BDAD100BF086850E8050F0A689D
:103A600040F0010042E80503DBB3086850E8050FA9
:103A70000A6840F0010042E8050393B3086850E883
:103A8000050F0A6840F0010042E805034BB30868DF
:103A900050E8050F0A6840F0010042E80503002BDA
:103AA000DAD11EE0086850E8050F0A6840F04000CF
:103AB00042E80503FBB1086850E8050F0A6840F0CA
:103AC000400042E80503B3B1086850E8050F0A68F2
:103AD00040F0400042E80503002B4FF000003FF4A7
:103AE0005CAF086850E8050F0A6840F0400042E803
:103AF0000503002BD6D1002002B070BD7047000036
:103B0000704700002DE9F04381B0044690F8410071
:103B1000202809D100294FF0010018BF002A07D141
:103B200001B0BDE8F08300BF022001B0BDE8F08322
:103B30000020606421201D460E4684F8410017468F
:103B4000FEF70AFAA784E784A1688146B1F5805F91
:103B500002D1206900285DD037460020E28C216820
:103B6000002A5DD06A1C24D0002D4AD0804600BFB8
:103B70000868000608D4FEF7EFF9A0EB0900A84298
:103B80007AD82168C868F3E717B117F8010B04E089
:103B900038F8020B00276FF35F204860E08C013893
:103BA000E084E08C0028E3D13AE000BF0A68120606
:103BB00009D40A68120606D40A6812065CBF0A68AD
:103BC0005FEA0262F2D51FB117F8012B05E000BFD2
:103BD00030F8022B00276FF35F224A60E28C013A33
:103BE000E284E28C002AE4D11AE000BF30F8022B14
:103BF00000276FF35F224A60E28C013AE284E28C94
:103C000072B10A68120635D5002FEFD017F8012BD4
:103C1000F1E700BF00273046E28C2168002AA1D1DD
:103C2000086840061ED42DB3681C14D108684006ED
:103C30002AD40868400627D40868400624D40868B7
:103C400040064FF00000F1D50DE000BF2068C168CC
:103C50000068400618D4FEF77FF9A0EB0900A842DF
:103C6000F4D909E00020202184F8411001B0BDE81A
:103C7000F08300BFFEF770F90320202184F8411083
:103C800001B0BDE8F08300BF0020202184F841107E
:103C900001B0BDE8F0830000B0B590F84140202CA1
:103CA0001CBF0220B0BD1346024600294FF00100A0
:103CB00018BF002B00D1B0BD4FF0000C21201162C5
:103CC0009384D384C2F844C082F841001468154636
:103CD000906B46F2BD2E46F26D32C0F6000EC0F675
:103CE0000002C0E90FE245F6C972C0F60002C0E961
:103CF000132C221DFEF708F830B110206864202034
:103D000085F841000120B0BD286829466FF04002C7
:103D1000026000BF086850E8050F0A6840F08000A4
:103D200042E8050303B3086850E8050F0A6840F04D
:103D3000800042E80503BBB1086850E8050F0A6837
:103D400040F0800042E8050373B1086850E8050FB1
:103D50000A6840F0800042E80503002B4FF00000A5
:103D600008BFB0BDD6E700BF0020B0BD006844F674
:103D70000001C4F20001884218BF704710B540F23C
:103D8000E824C2F20004E08821890844E080E08849
:103D9000B0F5807F03D3E088A0F58070E08000203C
:103DA000E070E07810B1BDE810407047A088E1886D
:103DB0008842F8D00120E070A088E18888428CBF5A
:103DC000A0884FF48070E188401A2081E08841F299
:103DD0007831C2F200012289014441F2A420C2F2EA
:103DE0000000FFF759FF00281CBF0020E070BDE86D
:103DF000104070477047000040F24020C2F20000BF
:103E000090ED0E0A7047000010B541F2142040F604
:103E10008841C2F20000C2F2000100F0DFFF00287A
:103E20001CBF012010BD40F24024C2F2000404F186
:103E300018002821FCF720FA00204FF48071C4E913
:103E40000100E060A4F80110207010BDF0B58BB047
:103E500040F24027C2F20007B97800220129ADF8EC
:103E60000A2017D110B3054640F688400DF10A0428
:103E700003AEC2F20000502134221023CDE90064C9
:103E800001F02EF870B1012808D002280ED10420CC
:103E90000BB0F0BD06200BB0F0BD00BF05200BB08D
:103EA000F0BD00BFBDF80A00202803D202200BB0ED
:103EB000F0BD00BFBDF80C009FED881AC0BA00EE3F
:103EC000100AB8EEC00A20EE010ABDF80E2010EE6E
:103ED000101A2960D1BA00EE101AB8EEC00A20EE0E
:103EE000010ABDF8102010EE101A6960D1BA00EE78
:103EF000101AB8EEC00A20EE010ABDF8122010EE2A
:103F0000101AA960D1BA00EE101A9FED751AB8EE1A
:103F1000C00A20EE010ABDF8142010EE101AE96064
:103F2000D1BA00EE101AB8EEC00A20EE010ABDF8B0
:103F3000162010EE101A2961D1BA00EE101AB8EE50
:103F4000C00A20EE010A10EE101A6961DDF81E1099
:103F5000DDF8222009BADDF8263000EE101A9FEDB8
:103F6000612AB8EEC00A11BA20EE021A00EE101A49
:103F700019BA03EE101ABDF82A10B8EEC00AB8EE4E
:103F8000C33AC9BA20EE020A23EE024A02EE101A20
:103F90009FED553AB8EEC22A797822EE032A2846D8
:103FA00012EE102A00296A626CD097ED015A9FED3B
:103FB0004F7A9FED4F3A97ED026A25EE075A21EEB0
:103FC000031A97ED032A31EE051A26EE075A20EE62
:103FD000030A30EE050A9FED475A34EE424AB4EE2A
:103FE000454AF1EE10FA87ED011A87ED020A1DDD50
:103FF0009FED416A34EE064AB4EE454AF1EE10FAFE
:1040000014DD34EE064AB4EE454AF1EE10FA0DDD49
:1040100034EE064AB4EE454AF1EE10FA06DD34EE0F
:10402000064AB4EE454AF1EE10FAE3DC9FED335A4E
:10403000B4EE454AF1EE10FA1DDA9FED316A34EE26
:10404000064AB4EE454AF1EE10FA14DA34EE064AA6
:10405000B4EE454AF1EE10FA0DDA34EE064AB4EE4B
:10406000454AF1EE10FA06DA34EE064AB4EE454A55
:10407000F1EE10FAE3DB24EE033A33EE024A87ED69
:10408000034A07E0012187ED011A87ED020A87ED57
:10409000034A797011EE101AB0EEC12AB3EE0E1A6F
:1040A000816110EE101AB4EE412AC16114EE101AAB
:1040B000F1EE10FA01620BDCB0EEC00AB4EE410A78
:1040C000F1EE10FA04DC002038700BB0F0BD00BF38
:1040D0000120387000200BB0F0BD00BFD5FFFF39C4
:1040E000D6FF793D6F12833A0AD7233C9A99993EBD
:1040F0003333333F000034430000B4C3000034C303
:104100000000B443FEE70000FCF728FAFCF7C6FC09
:1041100000F0BCFA03F01CFB40F2E01440F20A0588
:10412000C2F20004C2F2000518E000BFB5F91200A7
:10413000C8284FF00000C8BF0320A0702078B0FA54
:1041400080F04009FCF7A4FB20780238B0FA80F038
:10415000400900F02BF8022003F01CF8A07868B1A9
:1041600003F0F6FAA169401A642807D3A07803285F
:1041700098BF02F00BFA03F0EBFAA0612078022856
:104180000CD00028DAD1FCF761F9B5F90C00C82889
:104190004FF00000C8BF0120CFE700BFFCF79AF93D
:1041A000B5F91000C828C1DD0220C6E7F0B581B01E
:1041B0002DED048B40F2541540F28C54C2F20005F0
:1041C000C2F20004297894EDB81A99B994ED9F0AC7
:1041D00094EDAC2A0021C5E9031130EE023A012129
:1041E00085ED051A85ED060A85ED072A85ED083A65
:1041F000A97029709FEDC40AB4EE401AF1EE10FACE
:1042000010DB9FEDC20AB4EE401AF1EE10FA09DCA1
:104210009FEDBF0A31EE000AB0EEC00AB2EE041AFA
:1042200020E000BFB0EEC10AB2EE0E2AB4EE420AA0
:10423000F1EE10FA14DD9FEDB72AB7EE000AB4EEE6
:10424000421AF1EE10FA4FF0010616DB9FEDB22A8A
:10425000B4EE421AF1EE10FA0FDC9FEDB00AD9E786
:10426000B1EE081A80EE010AB6EE001A9FEDAC2AF4
:10427000002620EE010A30EE020A002866D040F245
:104280000821C2F2000191ED011AB2EE043AB4EE37
:10429000431A91ED002AF1EE10FAB8BFB0EE413AA0
:1042A000BAEE041AB4EE413AB2EE0E6AF1EE10FA2A
:1042B000C8BFB0EE431AB4EE462AB0EE463ABAEEA4
:1042C0000E5AF1EE10FAB8BFB0EE423AB4EE453AEB
:1042D000B0EE454AF1EE10FAC8BFB0EE434A95ED94
:1042E000033A95ED047A20EE010A95ED051A33EEB6
:1042F000044A30EE073A9FEDD90A33EE017AB4EE64
:10430000407AF1EE10FA85ED034A85ED043A85ED29
:10431000017A06DB9FEDD20AB4EE407AF1EE10FA94
:1043200003DD30EE413A85ED043A95ED067ADFED96
:10433000CE0A37EE440AB4EE600AF1EE10FA85EDCB
:10434000020A3DDA9FEDC75A3FE000BF69780029B5
:1043500000F082800746204601F0E2FB04F1B00045
:10436000FCF76AFA04F1580001F0DAFB04F58470F6
:10437000FCF762FA04F5B07001F0D2FB04F5DC70D2
:10438000FCF75AFAD4ED9F0A94EDB81A94EDAC4AB2
:104390009FEDB73A38460021B0EE600AC5E9031137
:1043A00085ED051AC5ED060A85ED074A29702962D3
:1043B0006980C4E9BF11C4E9C211A4F8101355E023
:1043C000B4EE460AF1EE10FA03DD37EE054A85ED4C
:1043D000034AA97894ED9F0A94EDAC5A01296870BC
:1043E00004D195ED086A30EE055A07E030EE055A23
:1043F0000121B0EE456A85ED085AA97035EE465A9E
:104400009FED9A6A37EE444AB0EEC57A25EE065A19
:10441000B7EE006AB4EE467A9FED966A9FED967A03
:10442000DFED930AF1EE10FAB8BFB0EE605AB4EEC9
:10443000465AF1EE10FAB8BFB0EE456AB4EE476ADC
:10444000F1EE10FAC8BFB0EE467A74EE470A34EEC9
:10445000074AB1EE444A11E094ED9F0A95ED043A03
:1044600095ED051AD5ED060A95ED074A40F20822AA
:10447000C2F2000292ED002A0021697031EE031AA7
:104480009FED7E3A84EDBE4A9FED7D4A22EE032ADF
:104490009FED7C3A22EE048A0028B4EE430AC4ED74
:1044A000BD0A9FED732A08BFB0EE428AF1EE10FA02
:1044B00084EDC11A0EDA9FED6C1AB4EE410AF1EEEA
:1044C00010FA1DDD9FED671A9FED6A2A30EE011A82
:1044D00012E000BF9FED6C1AB4EE410AF1EE10FA43
:1044E00020DDB2EE0E1AB4EE410AF1EE10FA07DA50
:1044F0009FED602A31EE401A81EE029A14E000BF6F
:10450000BEEE009A10E000BF0000344300004843B4
:1045100000003EC300800E4400801344000011C41C
:10452000CDCC4C3EB7EE009ABEEE001AB4EE419AE6
:1045300004F1B000F1EE10FAB8BFB0EE419AFCF70A
:1045400053F8B4F95A0230EE480A69EE000A00EE58
:10455000100AB8EEC00A2046C4EDBF0A01F0DAF92D
:10456000BDEEC00A10EE100A94EDAC0AD4EDBE0AFE
:10457000A4F80C0304F58470FCF736F8B4F98E0245
:1045800038EE000A69EE000A00EE100AB8EEC00A22
:1045900004F15800C4EDC00A01F0BCF9BDEEC00A38
:1045A00010EE100A94EDB80AD4EDC10AA4F80E0377
:1045B00004F5DC70FCF718F8B4F9C202F0EE400A1A
:1045C00084EDC20A00EE100AB8EEC00A04F5B0701D
:1045D00001F0A0F9BDEEC00A10EE102AA4F81023D5
:1045E00076BB94EDB80A94EDC11AB0EE082A31EE0C
:1045F000400AB0EEC01AB4EE421AF1EE10FA1FDA19
:10460000B4F9C212B5EE400AF1EE10FAC8BF0029A3
:1046100009DCB5EE400AF1EE10FA4FF0000010DAB6
:10462000B1F1FF3F0DDCE87860B994ED620AB6EEB7
:10463000001A20EE010A012084ED620A01E000BFA9
:104640000020E870B4F90C03B4F90E13BDEC048B30
:1046500001B0BDE8F040FBF785BE00BF0080EDC4AF
:104660000000FA4400C0734400C073C49A99993E94
:104670000000000000004842000048C200409C4585
:104680003333B33E004067C400000CC22DE9F04F45
:1046900081B02DED108B40F28C540027C2F2000443
:1046A000C4F230174FF07C5500204CF6CD4149F64E
:1046B0009A13C4E98475C4E98657C4E988554CF651
:1046C000CD45C4F2C810C3F6CC51C3F61973C3F676
:1046D0004C554FF07E57C4E98A01C4E9945700272E
:1046E000C4E98C3004F50E709FED51AA9FED51BACC
:1046F0009FED519A40F2000CC4F2201749F69A152A
:104700008AC004F51170B1EE04CAB6EE008A04F551
:104710000A72C4F2501CC3F6996580E8221004F1B5
:10472000B0000021B0EE4A0AF0EE4B0AB0EE491A92
:10473000F0EE4C1AB0EE482AF0EE492A04F5047661
:1047400004F50D7B04F5077A04F5137904F5107868
:10475000FCF77EF89FED39DA9FED39EADFED398A13
:10476000DFED399AB1EE08FA204600213246B0EE6C
:104770004D0AF0EE4E0AB0EE4F1AF0EE681AB0EEA7
:10478000482AF0EE692A01F0D5F904F58470002179
:104790005A46B0EE4A0AF0EE4B0AB0EE491AF0EE75
:1047A0004C1AB0EE482AF0EE492AFCF751F804F111
:1047B000580000215246B0EE4D0AF0EE4E0AB0EE1F
:1047C0004F1AF0EE681AB0EE482AF0EE692A01F0AE
:1047D000B1F99FED1E0ADFED1E0ADFED1E2A04F57A
:1047E000DC70F3EE0E1A00214A46B0EE491AB0EE24
:1047F000482AFCF72DF89FED180ADFED180A9FED07
:10480000181ADFED181A04F5B07000214246B0EE18
:10481000482AF0EE492A01F08DF9002000210022FB
:10482000BDEC108B01B0BDE8F04FFBF79BBD00BFA6
:1048300000C0C14500007A44CDCC4C3E00803B46D0
:104840000000FA440000C8429A99993E00409C45F5
:104850000000C843CDCCCC3D0000FA450000FA432F
:104860000000A0420000484210B540F28C54C2F251
:104870000004204601F054F904F1B000FBF7DCFF1E
:1048800004F1580001F04CF904F58470FBF7D4FFF3
:1048900004F5B07001F044F904F5DC70FBF7CCFFCF
:1048A00040F2541094ED9F0A94EDB81A94EDAC2A9E
:1048B000C2F200000021C0E9031180ED051A80ED6D
:1048C000060A80ED072A0160016284EDBD0A84EDCD
:1048D000BE2A84EDC11AC4E9BF11C4E9C211A4F80B
:1048E000101310BD10B58AB040F6FC7046F20041BE
:1048F000C2F20000C4F2000100244FF4A0234FF4E0
:10490000801C052280E81600C0E90343C0E905C405
:104910008483FCF743FC002818BFFBF7B5FF0E208B
:1049200009900120CDE9070040F6FC70C2F20000BA
:104930006946049406940594CDE90044CDE9024407
:10494000FCF7CAF9002818BFFBF79EFF40F6FC7081
:10495000C2F20000FCF7ACFF002818BFFBF794FF81
:1049600040F6FC70C2F200000221FCF74BF900286F
:1049700018BFFBF789FF0AB010BD000010B58AB060
:1049800041F2240046F60001C2F20000C4F2000128
:1049900000244FF4A0234FF4801C052280E8160069
:1049A000C0E90343C0E905C48483FCF7F7FB002892
:1049B00018BFFBF769FF0E2009900121059041F215
:1049C0002400CDE90711C2F2000069460494069460
:1049D000CDE90044CDE90244FCF77EF9002818BF78
:1049E000FBF752FF41F22400C2F20000FCF760FF27
:1049F000002818BFFBF748FF41F22400C2F2000074
:104A00000221FCF7FFF8002818BFFBF73DFF0AB0B2
:104A100010BD000080B582B0002043F63001019047
:104A2000C4F202010A6842F400120A600A6802F441
:104A300000120192019A00900868002240F4800060
:104A400008600868072100F48000009000980C209E
:104A5000FDF740FB0C20FDF72BFB0E200721002269
:104A6000FDF738FB0E20FDF723FB3A20072100223B
:104A7000FDF730FB3A20FDF71BFB46200721002203
:104A8000FDF728FB462002B0BDE88040FDF710BBD3
:104A9000F0B587B0002643F630000696CDE90466EF
:104AA000CDE902660196C4F20200016840F20044BA
:104AB00041F0800101600168C4F2020401F080014C
:104AC000019101990196016802AD41F00101016077
:104AD0000168012701F00101019101990196016826
:104AE00041F002010160016801F0020101910199A8
:104AF0000196016841F0100101600068294600F04C
:104B00001000019001983A2002902046CDE90376EA
:104B10000596FDF74BF92820CDE9020704F5406022
:104B20002946CDE90466FDF741F940F20C60CDE974
:104B30000207A4F580602946CDE90466FDF736F941
:104B40004FF4F840CDE9020720462946CDE9046636
:104B5000FDF72CF907B0F0BD80B541F2142041F209
:104B60000001C2F20000C4F2010100234FF00C0C5E
:104B70004FF4E13280E80E00C0E90333C0E905C319
:104B8000C361FEF799FD002808BF80BDBDE88040E5
:104B9000FBF77ABE80B541F25C2044F20041C2F2DC
:104BA0000000C4F2000100234FF00C0C4FF4165229
:104BB00080E80E00C0E90333C0E905C3C361FEF716
:104BC0007BFD002808BF80BDBDE88040FBF75CBED0
:104BD000B0B541F2A42044F60001C2F20000C4F2D4
:104BE000000148F2A0620C240025C0F201024FF43B
:104BF00080534FF4005C4FF4806E80E80E50C0E9A3
:104C00000545C561FEF758FD002808BFB0BDBDE8E9
:104C1000B040FBF739BE000040F24020C2F2000075
:104C200090ED0E2A9FED683A30EE422AB4EE432A08
:104C3000F1EE10FA1EDD9FED650A00BF32EE002A8C
:104C4000B4EE432AF1EE10FA14DD32EE002AB4EE8F
:104C5000432AF1EE10FA0DDD32EE002AB4EE432ABB
:104C6000F1EE10FA06DD32EE002AB4EE432AF1EE40
:104C700010FAE3DC9FED560AB4EE402AF1EE10FA8A
:104C80001EDA9FED544A00BF32EE042AB4EE402AE9
:104C9000F1EE10FA14DA32EE042AB4EE402AF1EE04
:104CA00010FA0DDA32EE042AB4EE402AF1EE10FAD0
:104CB00006DA32EE042AB4EE402AF1EE10FAE3DB13
:104CC00090ED044A32EE444AB4EE434AF1EE10FA53
:104CD0001EDD9FED3E5A00BF34EE054AB4EE434A56
:104CE000F1EE10FA14DD34EE054AB4EE434AF1EE6B
:104CF00010FA0DDD34EE054AB4EE434AF1EE10FA37
:104D000006DD34EE054AB4EE434AF1EE10FAE3DC78
:104D1000B4EE404AF1EE10FA1EDA9FED2E3A00BFD3
:104D200034EE034AB4EE404AF1EE10FA14DA34EEEF
:104D3000034AB4EE404AF1EE10FA0DDA34EE034ABB
:104D4000B4EE404AF1EE10FA06DA34EE034AB4EE5D
:104D5000404AF1EE10FAE3DB90ED050AB2EE043AB8
:104D600032EE000AB4EE430AF1EE10FA80ED050AC5
:104D700006DCBAEE043AB4EE430AF1EE10FA03DAB6
:104D8000B0EE430A80ED053A21EE000A20EE821AC9
:104D900031EE000A21EE841A31EE001AB3EE0E0A4B
:104DA000B4EE401AF1EE10FA80ED042AC8BF704745
:104DB000BBEE0E2AB4EE421AB0EE410AF1EE10FA42
:104DC000B8BFB0EE420A7047000034430000B4C3DD
:104DD000000034C30000B443FEE7000070B582B0A9
:104DE000054600284FF0010078D00C46002975D008
:104DF000201D4FF45C71FBF73FFAE86B502100284F
:104E0000256084F86E1348D0296840F6FF70C4F21C
:104E1000010081424FF001000EDC44F20042C4F276
:104E20000002914216D044F60002C4F20002914200
:104E300054D1272611E000BF41F20002C4F2010262
:104E4000914209D041F20042C4F20102914245D19F
:104E5000472602E0262600E025260C204EF200110F
:104E600000EAD600CEF20001405806F00701C84023
:104E7000C00707D1304606210022FDF72BF9304646
:104E8000FDF716F92846FEF76DF804F1640128468F
:104E90004FF40072FEF772FD10B1012002B070BD38
:104EA000E86B29680068026822F008020260C8689E
:104EB00040F01000C860002001900A680192496823
:104EC00001910199A4F8640284F86602A4F86C03C5
:104ED000FDF742F801460020C4F8701302B070BD1F
:104EE0002DE9F04782B00446A3F17E004FF68377A8
:104EF00080B2B8424FF00600C0F0C780002C00F02E
:104F0000C480DDF82890B9F1000F00F0BE80DDF814
:104F10002C80B8F1000F00F0B880100A8DF8040062
:104F200000208DF805208DF806009A468DF8073090
:104F300001AB204603220D4601F05EFC20B10820A3
:104F400002B0BDE8F08700BFFDF706F894F86612DE
:104F500061B90646FDF700F8801B13286ED80120C2
:104F600002F018F994F866020028F3D0B4F86C0344
:104F7000042803D2062002B0BDE8F08794F8681236
:104F8000A94257D194F9691200295BD403295DD154
:104F900047F636625FFA8AFC00F0030E20F0030643
:104FA00004F5197107F17C000025C0F6000200BF6E
:104FB00011F8043F04354340DBB232F813304F7828
:104FC00083EA10207840C0B232F810008F7880EA6F
:104FD00013237B40DBB232F81330CF7883EA102002
:104FE0007840C0B232F81070B54287EA1320DFD1A2
:104FF000BEF1000F2ED00B79BEF1010F83EA000342
:10500000DBB232F813704FEA102624D04B7987EACE
:1050100006005840C0B23E0A32F81070BEF1020FCE
:1050200019D0897987EA06004840C0B23E0A32F8B2
:10503000107010E0032002B0BDE8F087012002B03C
:10504000BDE8F087052002B0BDE8F087042002B07B
:10505000BDE8F0871E0AB7421AD1B4F86C030521E7
:1050600001EB4C0181423FF685AF94F86A024FEAAA
:105070004C0290427FF47EAFD0B2A8F8000004F258
:105080006B214846FBF7DFF8002002B0BDE8F0874F
:10509000022002B0BDE8F087002808BF7047B0B515
:1050A00082B00446006880B10025A4F8645284F8F8
:1050B0006652A4F86C53FDF755FF206804F16401B3
:1050C0004FF40072FEF75AFC20B102B0BDE8B040C8
:1050D000704700BF2068C16B006809680A6822F049
:1050E00008020A60C16841F01001C16001950168C1
:1050F0000191406801900198FCF72EFFC4F87003FD
:1051000002B0BDE8B0407047002871D001680029A6
:1051100008BF70472DE9F04F81B00A681368DB06BD
:1051200063D5002300931368009352680092009A9D
:10513000C96B002959D009684A68B0F86412C2F5F1
:105140000075B0F86432AEB2EF1A8E42134438BF25
:10515000C3F58067390448D0B0F86412B0F86432FF
:1051600000F51A7800F1640A8146B0F864028E42B4
:105170000AEB00010CD9E81A84B2B4F5827F28BF8B
:105180004FF4827440462246FBF75DF822E000BFF0
:10519000C3F5007087B23C461FFA82FBB7F5827FE9
:1051A00028BF4FF4827440462246FBF74CF8BBF50B
:1051B000007F0FD0B80840280CD8C4F5827087B2A1
:1051C000BE4238BF374608EB040051463A46FBF76B
:1051D0003AF83C440120A9F86452A9F86C4389F8D4
:1051E0006602FCF7B9FEC9F8700301B0BDE8F04FE4
:1051F00070470000FEE700002DE9F04F81B02DED73
:105200000C8B40F6A404C2F200040020C4F270101B
:1052100049F69A1127462646A346C3F699614FF0F0
:105220007C5284E8070047F80C0F46F8180F4BF83B
:10523000240F0020C4F24000A246A1464AF8300FD5
:1052400049F83C0F0020C4F22000A046C4E9041233
:10525000C4E90712C4E90A124DF20A7148F8480F6E
:105260004CF28F209FED638A9FED639A9FED63AAB6
:105270009FED63BA9FED63DAC3F6A351C3F6755091
:1052800004F15405B6EE00CAC4E90D11C4E91011C9
:10529000C4E91300284600212246B0EE480AF0EE89
:1052A000490AB0EE4A1AF0EE4B1AB0EE4C2AF0EE74
:1052B0004D2A00F03FFC284600F032FC04F1AC051A
:1052C000284600213A46B0EE480AF0EE490AB0EE10
:1052D0004A1AF0EE4B1AB0EE4C2AF0EE4D2A00F0CE
:1052E00029FC284600F01CFC04F5827528460021A4
:1052F0003246B0EE480AF0EE490AB0EE4A1AF0EE35
:105300004B1AB0EE4C2AF0EE4D2A00F013FC284662
:1053100000F006FC04F5AE75284600215A46B0EEB2
:10532000480AF0EE490AB0EE4A1AF0EE4B1AB0EE17
:105330004C2AF0EE4D2A00F0FDFB284600F0F0FB71
:105340009FED318A9FED319A9FED31BA9FED31DAB1
:1053500004F5DA75B2EE01AAB5EE00CA28460021BE
:105360005246B0EE480AF0EE490AB0EE4A1AF0EEA4
:105370004B1AB0EE4C2AF0EE4D2A00F0DBFB04F5A0
:105380000376304600214A46B0EE480AF0EE490A5C
:10539000B0EE4A1AF0EE4B1AB0EE4C2AF0EE4D2A5F
:1053A00000F0C8FB04F519749FED1B0ADFED1B0A22
:1053B000B2EE051A204600214246F0EE4B1AB0EE3E
:1053C0004C2AF0EE4D2A00F0B5FB284600F0A8FB71
:1053D000304600F0A5FB204600F0A2FB0020002193
:1053E00000220023BDEC0C8B01B0BDE8F04FFAF7B2
:1053F000E9BF00BF00007A460080BB440000A04225
:1054000000007A44CDCC4C3D000016440000164309
:1054100000004843CDCCCC3D0000FA430000F042F0
:10542000B0B52DED048B40F6A404C2F20004B4F92B
:10543000BE02B4F9F212B4F92623B4F95A3300EEDD
:10544000100A9FEDA62A04EE101AB8EEC00A9FEDCE
:10545000A41AB8EEC44A06EE102A20EE020A24EE80
:10546000024AB8EEC66A00EE903A20EE013A24EE07
:10547000015A26EE026AF8EEE00A26EE017A20EEE4
:10548000822A84EDF10A84EDF53A33EE450A40F2C2
:10549000781533EE053A62EE010A84EDF24A84EDA6
:1054A000F42A30EE070A9FED8F2AC2F2000533EE90
:1054B000474A84EDF65A30EE600A34EE604A95EDC4
:1054C000015A84EDF36A20EE020A24EE022A9FEDCF
:1054D000876A85ED152A32EE452A22EE062A33EE3A
:1054E000073A9FED814A32EE052A33EE203A85EDE8
:1054F000012A95ED022A23EE043A95ED004A85ED46
:10550000163A33EE423A85ED140A30EE440A23EEA1
:10551000063A40F2182020EE060A33EE022AC2F2C2
:10552000000030EE040A95ED034A85ED022A90ED65
:10553000002ADFED6F1A32EE442AC4EDF80AB4EE09
:10554000412AF0EE410A84EDF77A85ED000A95EDE7
:10555000045A95ED057A90ED013A90ED026AF1EE6C
:1055600010FAB8BFF0EE420AF4EE610AB0EE612A1A
:10557000F1EE10FAC8BFB0EE602A74EE020A33EE04
:10558000452AB4EE412AC5ED030AF1EE10FAB8BF80
:10559000B0EE421AB4EE611AF1EE10FAC8BFF0EEA6
:1055A000411A35EE211A85ED041A9FED521A36EE96
:1055B000472A9FED513AB4EE412AF1EE10FAB8BFF6
:1055C000B0EE421AB4EE431AF1EE10FAC8BFB0EED4
:1055D000413A37EE031A04F5DA7085ED051A00F04A
:1055E00099F995ED011AD5ED040AB0EE408A04F55B
:1055F0000370B0EE410A00F08DF995ED021AD5ED79
:10560000050AB0EE409A04F51970B0EE410A00F0B8
:1056100081F995ED001A95ED012A95ED034A95ED76
:10562000045A95ED023A95ED056A34EE411A35EECD
:10563000422AB0EEC11AB0EEC22A31EE021A36EE9C
:10564000432A9FED2E3AB0EEC22A22EE032A9FEDA6
:105650002C3A32EE011A9FED2B2A21EE031A9FED10
:105660002A3A31EE021AB4EE431AF1EE10FAB8BF3C
:10567000B0EE413AB4EE423AB7EE001AF1EE10FA4B
:10568000C8BFB0EE432A31EE421A28EE023A21EEAC
:10569000044A34EE033A29EE024A21EE055A20EE7E
:1056A000020A21EE061A35EE044A31EE000A85EDB3
:1056B0000D3A85ED0E4A85ED0F0A00F027F8B4F992
:1056C000BC03B4F9BE13B4F9C023B4F9C233BDECC2
:1056D000048BBDE8B040FAF775BE00BFE49BBC3B4D
:1056E0000AD7A33DF30B353ED11B86BECDCC4C3E35
:1056F0000AD7A3BDCDCC4C3DCDCC4CBD9A99993E9B
:105700008FC2F53DEC51383E3333B33E10B52DED2D
:10571000048B40F27814C2F2000494ED0F0A9FED5E
:10572000761A20EE018A01F06FFC40F21820C2F2D6
:10573000000090ED039A01F08BFC94ED0D0A94EDBE
:105740000E1A9FED6E3A30EE012A39EE084A22EE2B
:10575000032A9FED6B5A32EE046A31EE407A30EE46
:10576000410A86EE056A20EE030A27EE037A30EE40
:10577000040A37EE047A80EE053A34EE420A87EEE8
:10578000057A80EE054A9FED5F5A40F6A404C2F206
:1057900000049FED5D0A26EE051AB0EEC12AB5EEB3
:1057A000402A84EDE36A84EDE71A84EDE53AF1EEF0
:1057B00010FA84EDE47A84EDE64AC8BFB0EE420AFE
:1057C00027EE052AB0EEC26AB4EE406A23EE053A2F
:1057D00084EDE82AF1EE10FAC8BFB0EE460AB0EE4A
:1057E000C36AB4EE406A24EE054A84EDE93AF1EE6C
:1057F00010FAC8BFB0EE460AB0EEC46A9FED435A35
:10580000B4EE406AF1EE10FAC8BFB0EE460AB4EE4C
:10581000450AF1EE10FA84EDEA4A11DD85EE000A40
:1058200020EE011A20EE022A20EE033A20EE040AAE
:1058300084EDE71A84EDE82A84EDE93A84EDEA0A7A
:10584000B4F9BE029FED328A00EE100AB8EEC00A2B
:1058500061EE080A04F1540000F05CF8BDEEC01AD5
:1058600011EE100AA4F8BC03B4F9F20294EDE81AA0
:1058700084EDEB0A00EE100AB8EEC00A61EE080AE9
:1058800004F1AC0000F046F8BDEEC01A11EE100AAB
:10589000A4F8BE03B4F9260394EDE91A84EDEC0AEA
:1058A00000EE100AB8EEC00A61EE080A04F5827034
:1058B00000F030F8BDEEC01A11EE100AA4F8C003D3
:1058C000B4F95A0394EDEA1A84EDED0A00EE100AD9
:1058D000B8EEC00A61EE080A04F5AE7000F01AF8DE
:1058E00084EDEE0ABDEEC00A10EE100AA4F8C20361
:1058F000BDEC048B10BD00BFCCCC2CBFF4FDB43F7D
:105900000AD7A33DEBC91841000000000080BB4549
:105910004A8C9141002869D080ED070A30EEC00A18
:1059200090ED126AB0EEC04AB4EE464A90ED0F1AFE
:1059300090ED102AC0ED060A9FED785AF1EE10FAAC
:10594000B8BFB0EE450A017880ED0F0A002980ED5E
:10595000101A80ED112A4DD0012940F0DB8090ED26
:10596000015A90ED026A30EE414A31EE011A24EEFE
:10597000054A20EE065A30EE410A90ED141A90EDD9
:105980000C6A32EE000AB7EE002A32EE412A90EDA0
:10599000037A20EE010A22EE061A31EE000A80EDAB
:1059A0000C0A27EE000A34EE051A90ED082A90ED55
:1059B000043A80ED0B0A31EE000A32EE000A416B28
:1059C000B4EE430AF1EE10FA80ED094A80ED0A5A6E
:1059D000816380ED0D6A80ED080AC2BF80ED083A50
:1059E000B0EE430A7047B1EE431A89E09FED4B0ACF
:1059F000704700BF90ED042A90ED087A90ED013ACF
:105A0000B4EE427A20EE033AF1EE10FA80ED093A54
:105A100004DBB5EE400AF1EE10FA29DCF1EE421A91
:105A2000B4EE617AF1EE10FA04DCB5EE400AF1EE64
:105A300010FA1DDBB4EE464A90ED136AF1EE10FA4F
:105A4000B8BFB0EE454AB4EE464AF1EE10FA0FDAAE
:105A500090ED025A31EE004A90ED0A6A24EE054AB2
:105A6000B6EE005A24EE054A36EE044A80ED0A4AA4
:105A700090ED055A90ED0A4AB4EE454AF1EE10FA5F
:105A800006DCB1EE455AB4EE454AF1EE10FA03DAFF
:105A9000B0EE454A80ED0A5A90ED147A90ED0C6A0A
:105AA00030EE410AB7EE001A31EE471A90ED035A74
:105AB00020EE070A21EE061AD0ED151A31EE000A83
:105AC00025EE001A33EE043A80ED0B1A80ED0C0A35
:105AD00020EEA10A31EE031A30EE010A416BB4EE5A
